:020000040800F2
:1000000000000220995100086922000871220008AE
:1000100079220008812200088922000800000000DF
:100020000000000000000000000000009122000815
:100030009F22000800000000AD220008BB2200083B
:10004000E9510008E9510008E9510008E9510008A8
:10005000E9510008E9510008E9510008E951000898
:10006000E9510008E9510008E9510008E951000888
:10007000E9510008E9510008E9510008E951000878
:10008000E9510008E9510008E9510008E951000868
:10009000E9510008C9220008E9510008E9510008A7
:1000A000E9510008E9510008E9510008E951000848
:1000B000E9510008E9510008E9510008E951000838
:1000C000E9510008E9510008E9510008E951000828
:1000D000E9510008E9510008E9510008E951000818
:1000E000E9510008E9510008E9510008E951000808
:1000F000E9510008E9510008E9510008E9510008F8
:10010000E9510008E9510008E9510008E9510008E7
:10011000E9510008E9510008DD220008E951000812
:10012000E9510008E9510008E9510008E9510008C7
:10013000E9510008E9510008E9510008E9510008B7
:10014000E9510008E9510008E9510008E9510008A7
:10015000E9510008E9510008E9510008E951000897
:10016000E9510008E9510008E9510008E951000887
:10017000E9510008E9510008E9510008E951000877
:10018000E9510008E9510008E9510008E951000867
:10019000E951000800000000E9510008E951000899
:1001A000E9510008E9510008E9510008E951000847
:1001B000E9510008E9510008E9510008E951000837
:1001C000E9510008E9510008E9510008E951000827
:0801D000E9510008E9510008A3
:1001D800830730B547D0541E002A3ED0CAB2034622
:1001E80001E0013C39D303F8012B9D07F9D1032C19
:1001F8002CD9CDB205EB05250F2C05EB054535D9D6
:10020800A4F1100222F00F0C03F1100EE6444FEA9D
:10021800121C1A46156055609560D56010327245FB
:10022800F8D10CF1010214F00C0F03EB021204F0E8
:100238000F0C13D0ACF1040323F00303043313446D
:1002480042F8045B9A42FBD10CF003042CB1C9B20A
:100258001C4403F8011B9C42FBD130BD6446134685
:10026800002CF4D1F9E703461446C0E71A46A44621
:10027800E0E700BF70B50F4B0F4DAB42A3EB05068F
:1002880007D0B610002455F8043B01349847A6421D
:10029800F9D804F0A7FF094D094B5E1BAB424FEAA2
:1002A800A60606D0002455F8043B01349847A64218
:1002B800F9D870BD00540008005400080054000824
:1002C800045400080000000051EC100B1E4A21F0F5
:1002D800004393421FD900B51C4A934285B008D900
:1002E80002460B4601F0C6FA41EC100B05B05DF86A
:1002F80004FB684600F020FA00F0030001289DED99
:10030800021B9DED000B0AD0022816D090B10120E7
:1003180000F052F9EAE79FED0A1B00F019B800F067
:100328004BF953EC102B03F1004300EE903A05B063
:100338005DF804FB00F00CF8D8E700F009F8F0E7E6
:100348000000000000000000FB21E93FFFFFEF7FF5
:100358002DE9F04F57EC106B27F00048B8F1795FA2
:100368005BEC11AB85B06FD23046394601F0C2FC68
:10037800002800F0F08032463B463046394601F00E
:100388004BF977A3D3E9002304460D4601F044F95D
:1003980075A3D3E9002301F06FFA22462B4601F03A
:1003A8003BF973A3D3E9002301F064FA22462B46F4
:1003B80001F032F970A3D3E9002301F05DFA224677
:1003C8002B4601F029F96EA3D3E9002301F052FA74
:1003D80022462B4601F020F96BA3D3E9002301F054
:1003E8004BFA22462B4601F017F9CDE900016C4B78
:1003F80000222046294601F00FF9DDE90023804656
:1004080089462046294601F007F952465B460446CC
:100418000D463046394601F0FFF802460B462046A5
:10042800294601F027FA02460B464046494601F0A4
:1004380021FA02460B4600205A4901F01BFA41EC0A
:10044800100B05B0BDE8F08F32463B4630463946C2
:1004580001F0E2F842A3D3E9002304460D4601F077
:10046800DBF841A3D3E9002301F006FA22462B4624
:1004780001F0D2F83EA3D3E9002301F0FBF92246AC
:100488002B4601F0C9F83CA3D3E9002301F0F4F9A5
:1004980022462B4601F0C0F839A3D3E9002301F026
:1004A800E9F922462B4601F0B7F837A3D3E9002330
:1004B80001F0E2F92B46224601F0AEF83A4B984596
:1004C800CDE9000193D9394B98453BD8A8F50013DD
:1004D8000022344900209046994601F0CBF9CDE935
:1004E80002012F4B00222046294601F095F842468A
:1004F8004B4601F0BFF9DDE90023804689462046D6
:10050800294601F089F852465B4604460D463046B6
:10051800394601F081F802460B462046294601F08B
:10052800A9F902460B464046494601F0A3F902469E
:100538000B46DDE9020101F09DF941EC100B05B015
:10054800BDE8F08F9FED127BDFF864908DED027BA4
:100558004FF00008C5E79FED100B05B0BDE8F08F20
:10056800D43888BEE9FAA8BDC4B1B4BD9EEE213E18
:10057800AD529C804F7E923E9015CB19A001FA3E59
:100588007751C1166CC1563F4C5555555555A53F29
:10059800000000000000E73F000000000000F03FFE
:1005A8000000E03F0000F03F3233D33F0000E93F56
:1005B8000000D23F000000002DE9F04F55EC104B31
:1005C80025F0004385B0B3F1795F8DED001B8046BF
:1005D80006D22046294601F08DFB002800F08A80CB
:1005E80022462B462046294601F016F806460F46B5
:1005F80032463B462046294601F00EF843A3D3E98C
:10060800002382468B463046394601F005F841A35F
:10061800D3E9002301F02EF932463B4600F0FCFFF7
:100628003EA3D3E9002301F027F932463B4600F008
:10063800F3FF3CA3D3E9002301F01CF932463B4603
:1006480000F0EAFF39A3D3E9002301F015F9CDE959
:100658000201B8F1000F35D0DDE900012A4B002274
:1006680000F0DAFFDDE90223804689465046594604
:1006780000F0D2FF02460B464046494601F0FAF820
:1006880032463B4600F0C8FFDDE9002301F0F2F8EE
:100698001BA3D3E9002306460F465046594600F0EF
:1006A800BBFF02460B463046394601F0E5F80246E4
:1006B8000B462046294601F0DDF841EC100B05B049
:1006C800BDE8F08F02460B463046394600F0A4FFDD
:1006D8000BA3D3E9002301F0CDF852465B4600F0A6
:1006E8009BFF22462B4601F0C7F841EC100B05B0E2
:1006F800BDE8F08F45EC104B05B0BDE8F08F00BFAA
:10070800495555555555C53F0000E03F7CD5CF5A52
:100718003AD9E53DEB9C2B8AE6E55A3E7DFEB1577A
:10072800E31DC73ED561C119A0012A3FA6F81011E3
:100738001111813F000000002DE9F04F53EC102B00
:100748009B4923F000448C428FB0814640F292804E
:1007580098498C429A462BD8BAF1000F1046194690
:1007680089A3D3E9002340F3B68101F083F8924BC3
:100778009C4206460F4600F08E8085A3D3E90023ED
:1007880001F078F804460D4622462B463046394695
:1007980001F070F87EA3D3E9002301F06BF8C9E9F2
:1007A8000201C9E90045012528460FB0BDE8F08FD0
:1007B80082498C4240F2898081498C4262D84FEA52
:1007C8002458A8F21648A4EB08571046394616468E
:1007D80001F090FA01F09CF902460B463046394682
:1007E800CDE9082301F046F8764B002200F014FF0B
:1007F8000F46064601F07EFA01F08AF902460B46DA
:1008080030463946CDE90A2301F034F86D4B002211
:1008180000F002FFCDE90C010EAD032400260027ED
:1008280075E9020132463B46A346013C01F030FA25
:100838000028F5D1644B01930223009342465B469E
:10084800494608A800F0A4F9BAF1000F0546ABDA4A
:10085800D9F80410D9F8002001F10043D9F80C1098
:10086800C9E90023D9F8082001F10043C9E90223A6
:10087800454299E70020002189ED000BC9E90201F2
:10088800002591E71046194600F0F4FFC9E9020176
:10089800C9E90001F4E740A3D3E9002300F0EAFF27
:1008A8003FA3D3E9002306460F4600F0E3FF0446C2
:1008B8000D4622462B463046394600F0DBFF38A36A
:1008C800D3E9002300F0D6FF69E700F057F957ECA9
:1008D800106B35A3D3E900233046394600F09CFE5F
:1008E8003A4B002200F0C8FF01F004FA054601F077
:1008F8000FF902460B46CDE9062323A3D3E90023CB
:1009080000F08AFE02460B463046394600F0B2FF38
:100918001FA3D3E90023CDE90201DDE9060100F0B8
:100928007BFE1F2D06460F46CDE9046752DC284B97
:100938006A1E53F82230A3424CD002460B46DDE92A
:10094800020100F097FF06460F4632463B46C9E9CA
:100958000067DDE9020100F08DFFDDE9042300F006
:1009680089FFBAF1000FC9E90201BFF61DAF07F10F
:100978000043C9E9006301F10043C9E902036D427C
:1009880012E700BFAFF3008000004054FB21F93F9D
:100998003163621A61B4D03D0000601A61B4D03D81
:1009A8007370032E8A19A33B83C8C96D305FE43F77
:1009B800FB21E93F7BD90240FB21F93FFB2139416B
:1009C800FFFFEF7F00007041885200080000E03F01
:1009D80008520008DDE90423DDE9020100F04AFFBE
:1009E800C1F30A53C3EB1453102B4FEA245806469D
:1009F8000F46AADD58A3D3E90023DDE9060100F07C
:100A08000BFE06460F4632463B46DDE9020100F082
:100A180031FF02460B46DDE90201CDE9022300F071
:100A280029FF32463B4600F025FF4DA3D3E90023BA
:100A380006460F46DDE9060100F0EEFD32463B466C
:100A480000F018FF03460C46CDE904341A46DDE9E8
:100A58000201234600F00EFFC1F30A53A8EB030876
:100A6800B8F1310F06460F467FF76FAF3FA3D3E9C2
:100A78000023DDE9060100F0CFFD06460F463246A9
:100A88003B46DDE9020100F0F5FE02460B46DDE9D2
:100A98000201CDE9022300F0EDFE32463B4600F0AC
:100AA800E9FE34A3D3E9002306460F46DDE9060133
:100AB80000F0B2FD32463B4600F0DCFE03460C4631
:100AC800CDE904341A46DDE90201234600F0D2FEDE
:100AD80006460F4639E700F0CFFE234B9C420646F8
:100AE8000F4618D01AA3D3E9002300F0C5FE044628
:100AF8000D4622462B463046394600F0BBFE14A36D
:100B0800D3E9002300F0B8FEC9E90045C9E90201AC
:100B18004FF0FF3548E610A3D3E9002300F0ACFE00
:100B28000FA3D3E9002306460F4600F0A5FE0446AE
:100B38000D4622462B463046394600F09BFE08A358
:100B4800D3E9002300F098FEDEE700BFAFF3008092
:100B58003163621A61B4D03D0000601A61B4D03DBF
:100B68007370032E8A19A33BFB21F93F0000002E66
:100B78008A19A33BC14920259A837B3951EC100B74
:100B8800024621F0004343EC102B704700000000A0
:100B98002DE9F04FADF51B7D9E460C91BC4BA499F9
:100BA800049053F82130059312F1140F0EF1FF331E
:100BB8000393C0F25783B749D31E81FB0301DB17A8
:100BC800C3EBA10307930133A3EB8303DB00D31823
:100BD8000D93079A039BD41A059AD7181CD401378A
:100BE800A59E274422AD4FF000084FF00009F246B9
:100BF80008E056F8240000F08BFF0134BC42E5E819
:100C0800020108D0002CF4DA013440464946BC42BF
:100C1800E5E80201F6D1D646059B002BB8BF4FEA9E
:100C2800CE0638DB22AB03EBCE0A059BDDF80C9031
:100C3800CDF808E073440193049B0DF5E47B4FEA7B
:100C4800CE0603EBCE084B460696D9469B46039B39
:100C5800002BC0F2AB81049E57460024002577E99B
:100C68000223F6E8020100F0D7FC02460B462046B4
:100C7800294600F001FE464504460D46EFD1019B8A
:100C88000BF1010B9B45E9E802450AF1080ADED1A0
:100C9800DDF808E0069E049B059A0D9F33440893EF
:100CA8000EAB03EB8203043B09930EAB03EB820606
:100CB800CDE90A6E93469AAB03EBCB03BBF1000F69
:100CC80053E928452BDD0DF5E47A0AEBCB080DF145
:100CD80038090197704B00222046294600F09CFCF9
:100CE80001F008F800F014FF6C4B002206460F468E
:100CF80000F092FC02460B462046294600F0BAFD59
:100D080000F0F8FF78E9022349F8040B3946304629
:100D180000F0B2FDD04504460D46DBD1019F45ECFD
:100D2800104B384600F068FB55EC104B00224FF092
:100D38007F532046294600F06FFC41EC100B00F071
:100D4800E7FB574B51EC100B002200F065FC024604
:100D58000B462046294600F08DFD0D46044600F05E
:100D6800C9FF064600F0D4FE02460B462046294637
:100D780000F080FD002F8046894640F393800BF1F8
:100D8800FF300EAAC7F1180352F8202042FA03F4E4
:100D980004FA03F3D21AC7F117010EAB42FA01F5B0
:100DA800002D43F82020264400F3E780002200238A
:100DB8004046494600F06CFF002800F05B82059B26
:100DC8009B450DDD0EAB0A9803EB8B03002253F80D
:100DD800041D834242EA0102F9D1002A40F0EC8066
:100DE800059B0EAA013B52F82330002B40F0D98016
:100DF800099A012352F8041D01330029FAD00BF196
:100E080001025B44914607980B99069700EB020A8A
:100E18000AF1804AA59802930AF1FF3A594400EB77
:100E28008A0A22A800EBC108DDF820B0CDF804A09A
:100E380072A901EBC206019B53F8040F019300F05D
:100E480067FE039B002BE8E802011DDB049FC246F6
:100E5800002400257AE90223F7E8020100F0DCFB10
:100E680002460B462046294600F006FD5F4504462B
:100E78000D46EFD1029B09F101099945E6E80245C3
:100E8800D9DD069F9B4616E700240025F2E700BF40
:100E980090530008ABAAAA2A0000703E00007041D7
:100EA8000000204060D10BF1FF330EAA52F8235006
:100EB800ED15002D7FF77AAFBBF1000F06F10106A3
:100EC80040F3678200210EA80C466FF07F4CAE46B7
:100ED8000FE001318B4542F8045C6ADD1368083085
:100EE8000131ACEB03038B454FF0010440F8043C9F
:100EF8000BDD024652F8043BA4BBC3F18075002BFE
:100F0800E7D101318B451046F3DC7546002F0DDD26
:100F1800012F3BD0022F09D10BF1FF320EAB0EA9E6
:100F280053F82230C3F3150341F82230022D7FF421
:100F38003DAF42464B46BE49002000F09BFC804630
:100F48008946002C3FF432AF38469FEDB70B00F0CE
:100F580053FA4046494653EC102B00F08BFC804670
:100F6800894623E71046BBE7B24B002200F0AEFEED
:100F7800002840F06581054618E7BBF1000F06F12F
:100F88000106D8BF00249DDC012FC3D10BF1FF322D
:100F98000EAB0EA953F82230C3F3160341F82230E2
:100FA800C4E70BF10102914613462CE70024002503
:100FB80065E675460124A9E70D9B0BF1FF34A3F103
:100FC80018020EABCDE9035653F824300D9263B9DD
:100FD8000BF18043013B0EA901EB830353F8041D79
:100FE800013C183A0029F9D00D929FED8F0B0D980E
:100FF80000F002FA002C59EC108BC0F2D08104F1F9
:10100800010A0EAB03EB8A054FEACA0272AB8A4F9C
:1010180003EBCA0A0026934655F8040D00F078FD44
:1010280042464B4600F0F8FA3B466AE9020132466E
:101038004046494600F0F0FA0EAB9D42804689468C
:10104800EAD1ABF1080372A95A4601EB030A0DF580
:10105800947C4FF00009CDE9064263465246A34608
:10106800CA46DDF81490CDF814C0B9F1000FC0F2EB
:10107800FE80CDE90132DFF8C4811746002600243E
:10108800002501E0564510DCF7E80223F8E80201E4
:1010980000F0C2FA02460B462046294600F0ECFB57
:1010A8000136B14504460D46ECDADDE901320BF1B3
:1010B800FF3BBBF1FF3FE3E802450AF1010AA2F159
:1010C8000802D2D1A49BDDF814C0022BDDE9064248
:1010D80021DC002B00F3018116D10CEB0204002364
:1010E800002265461046194674E9022300F0C4FB45
:1010F800A54202460B46F5D1039911B103F100410F
:101108000B460C99C1E90023049B03F007000DF579
:101118001B7DBDE8F08FA49B032BF5D1002C00F0BC
:101128004E810CEBC409D9E90056E700CDE90179F5
:101138000594CDF818904C46674674E902AB2846EA
:10114800314652465B4600F097FBA84602460B46DE
:10115800B1465046594615461E4600F08BFB42469E
:101168004B4600F089FBBC42C4E90201C4E90056C1
:10117800E3D1DDE90549012CBC46DDF808A0019F53
:1011880000F01D81D9E90045CDE9017C0CF1080B7F
:101198007AE902672046294632463B4600F06CFB56
:1011A800A046A94604460D4622462B4630463946F7
:1011B80000F060FB42464B4600F05EFBD345CAE9AF
:1011C8000201CAE90045E3D1DDE9017C4FF00008DE
:1011D80007F10804002764440CF110053A46434619
:1011E80066461046194674E9022300F045FBA542FD
:1011F80002460B46F5D107468846B446039BDCE910
:101208000045DCE90212002B40F08C800C9BC3E9FE
:101218000045C3E90212C3E90478049B03F0070000
:101228000DF51B7DBDE8F08F000000000000F03FC9
:101238000000F03F0000E03F0000703EA0530008AF
:10124800BBF1000F06F10106C8BF02253FF73AAE11
:1012580042464B4602256549002000F00BFB8046BC
:101268008946A3E500216FF017030791AFE4002436
:1012780000251CE70D9C49EC108B6042CDE9035614
:1012880000F0BAF859EC108B594B002240464946F9
:1012980000F01CFD00283CD0564B00221834404674
:1012A80049460D9400F0B8F900F024FD054600F019
:1012B8002FFC4F4B002200F0AFF90B46024649467F
:1012C800404600F0D7FA00F015FD0BF101040EAB13
:1012D80043F82B0043F8245087E60CEB0205002363
:1012E800002266461046194675E9022300F0C4FA42
:1012F800AE4202460B46F5D1039951B30C9903F15E
:1013080000400A604860D6E9000100F0B3FA44BB27
:1013180032E04046494600F0EDFC0EAB5C4643F82F
:101328002B0062E60C9B2646084605F1004402F1B4
:1013380000419860C3E900641846D96008F1004389
:10134800C0E90473049B03F007000DF51B7DBDE89D
:10135800F08F0C99C1E90023D6E9000100F08AFA60
:101368006CB14CAE0125F6E80223013500F084FA91
:10137800AC42F8DA039B13B101F1004319460C9B08
:10138800C3E90201049B03F007000DF51B7DBDE8CE
:10139800F08F022D7FF40AAD02460B465BE7A49B53
:1013A800022B06DC002B0EDC7FF4AEAE00220023FD
:1013B800A2E6A49B032B7FF4A7AE0DF5947C00272F
:1013C8004FF000081AE7039B43B10C9900224FF035
:1013D8000043C1E90023DDE94A01CDE70C99002269
:1013E8000023C1E90023DDE94A01C8E70000F03F16
:1013F800000070410000703E38B553EC102B0446D5
:10140800C3F30A50194678BB23F000411143104634
:1014180029D0194600223A4B3A4D00F0FDF8AC426B
:1014280002460B4653DBC1F30A5036384CF2503CA7
:10143800644523DC044440F2FE7084421EDC002C28
:1014480034DC14F1350F3ADB21F0FF4121F4E001DF
:10145800363441EA04531046194600222A4B00F05C
:10146800DBF841EC100B38BD40F2FF7C6045DDD164
:10147800104600F001FA41EC100B38BD002B18A102
:10148800D1E9000107DB16A3D3E9002300F0C4F873
:1014980041EC100B38BD14A1D1E9000110A3D3E928
:1014A800002300F0B9F841EC100BF3E721F0FF41FD
:1014B80021F4E00141EA045343EC102B38BD002B22
:1014C8000BA1D1E9000102DA0BA1D1E9000108A3BF
:1014D800D3E9002300F0A0F841EC100B38BD00BFA1
:1014E8009C7500883CE4377E9C7500883CE437FE98
:1014F80059F3F8C21F6EA50159F3F8C21F6EA581F2
:1015080000005043B03CFFFF0000903C000000008A
:1015180051EC100BC1F30A532DE9F041A3F2FF354A
:10152800132D0C46064632DC002D20DB384B43FADF
:1015380005F801EA080303430F462DD032A3D3E987
:10154800002300F099F90022002300F0C9FB40B104
:10155800002C03DA4FF480132B411F4427EA0804B8
:1015680000262346324643EC102BBDE8F08126A323
:10157800D3E9002300F080F90022002300F0B0FB3B
:101588000028EED0002C2ADB00263446E9E7332D6C
:1015980006DDB5F5806F1BD041EC100BBDE8F0817E
:1015A800A3F213434FF0FF37DF400742F4D016A3EE
:1015B800D3E9002300F060F90022002300F090FB3B
:1015C8000028CED0002C334610DB23EA0706C8E7F4
:1015D80002460B4600F050F941EC100BDEE724F010
:1015E800004426430DD14FF00044BAE7142D06D02D
:1015F800C5F134050122AA401344B342E5D20134AF
:10160800E3E7044C0026ACE79C7500883CE4377E91
:10161800FFFF0F000000F0BF70B54FF0FF0C4CF457
:10162800E06C1CEA11541DBF1CEA135594EA0C0F18
:1016380095EA0C0F00F0DEF82C4481EA030621EA53
:101648004C5123EA4C5350EA013518BF52EA03358E
:1016580041F4801143F4801338D0A0FB02CE4FF040
:101668000005E1FB02E506F00042E0FB03E54FF070
:101678000006E1FB03569CF0000F18BF4EF0010E68
:10168800A4F1FF04B6F5007F64F5407404D25FEA64
:101698004E0E6D4146EB060642EAC62141EA555117
:1016A8004FEAC52040EA5E504FEACE2EB4F1FD0C59
:1016B80088BFBCF5E06F1ED8BEF1004F08BF5FEAD7
:1016C800500E50F1000041EB045170BD06F0004689
:1016D80046EA010140EA020081EA0301B4EB5C0436
:1016E800C2BFD4EB0C0541EA045170BD41F480112E
:1016F8004FF0000E013C00F3AB8014F1360FDEBF53
:10170800002001F0004170BDC4F10004203C35DA2E
:101718000C341BDC04F11404C4F1200500FA05F3B1
:1017280020FA04F001FA05F240EA020001F0004252
:1017380021F0004110EBD37021FA04F642EB0601C8
:101748005EEA430E08BF20EAD37070BDC4F10C04F2
:10175800C4F1200500FA04F320FA05F001FA04F2B6
:1017680040EA020001F0004110EBD37041F10001A2
:101778005EEA430E08BF20EAD37070BDC4F12005AD
:1017880000FA05F24EEA020E20FA04F301FA05F215
:1017980043EA020321FA04F001F0004121FA04F2BD
:1017A80020EA020000EBD3705EEA430E08BF20EA8D
:1017B800D37070BD94F0000F0FD101F000464000C7
:1017C80041EB010111F4801F08BF013CF7D041EA49
:1017D800060195F0000F18BF704703F0004652004D
:1017E80043EB030313F4801F08BF013DF7D043EA1E
:1017F8000603704794EA0C0F0CEA135518BF95EAD4
:101808000C0F0CD050EA410618BF52EA4306D1D15A
:1018180081EA030101F000414FF0000070BD50EA79
:10182800410606BF1046194652EA430619D094EA03
:101838000C0F02D150EA013613D195EA0C0F05D1ED
:1018480052EA03361CBF104619460AD181EA030141
:1018580001F0004141F0FE4141F470014FF00000F9
:1018680070BD41F0FE4141F4780170BD81F0004146
:1018780002E000BF83F0004330B54FEA41044FEA6D
:10188800430594EA050F08BF90EA020F1FBF54EA08
:10189800000C55EA020C7FEA645C7FEA655C00F0A4
:1018A800E2804FEA5454D4EB5555B8BF6D420CDD75
:1018B8002C4480EA020281EA030382EA000083EAF8
:1018C800010180EA020281EA0303362D88BF30BD98
:1018D80011F0004F4FEA01314FF4801C4CEA1131EE
:1018E80002D0404261EB410113F0004F4FEA03334D
:1018F8004CEA133302D0524263EB430394EA050FD8
:1019080000F0A780A4F10104D5F1200E0DDB02FA46
:101918000EFC22FA05F2801841F1000103FA0EF2DA
:10192800801843FA05F359410EE0A5F120050EF1A0
:10193800200E012A03FA0EFC28BF4CF0020C43FAD1
:1019480005F3C01851EBE37101F0004507D54FF0DE
:10195800000EDCF1000C7EEB00006EEB0101B1F52E
:10196800801F1BD3B1F5001F0CD349085FEA300074
:101978004FEA3C0C04F101044FEA445212F5800F7F
:1019880080F09A80BCF1004F08BF5FEA500C50F11C
:10199800000041EB045141EA050130BD5FEA4C0CFF
:1019A800404141EB0101013C28BFB1F5801FE9D25C
:1019B80091F0000F04BF01460020B1FA81F308BF7F
:1019C8002033A3F10B03B3F120020CDA0C3208DD4B
:1019D80002F1140CC2F10C0201FA0CF021FA02F126
:1019E8000CE002F11402D8BFC2F1200C01FA02F196
:1019F80020FA0CFCDCBF41EA0C019040E41AA2BFBB
:101A080001EB0451294330BD6FEA04041F3C1CDA82
:101A18000C340EDC04F11404C4F1200220FA04F0A2
:101A280001FA02F340EA030021FA04F345EA03014C
:101A380030BDC4F10C04C4F1200220FA02F001FA0E
:101A480004F340EA0300294630BD21FA04F0294690
:101A580030BD94F0000F83F4801306BF81F4801129
:101A68000134013D4EE77FEA645C18BF7FEA655C9C
:101A780029D094EA050F08BF90EA020F05D054EA6E
:101A8800000C04BF1946104630BD91EA030F1EBF73
:101A98000021002030BD5FEA545C05D14000494177
:101AA80028BF41F0004130BD14F580043CBF01F56A
:101AB800801130BD01F0004545F0FE4141F4700150
:101AC8004FF0000030BD7FEA645C1ABF194610462B
:101AD8007FEA655C1CBF0B46024650EA013406BF2C
:101AE80052EA033591EA030F41F4002130BD00BFEB
:101AF80090F0000F04BF0021704730B54FF48064A8
:101B080004F132044FF000054FF0000150E700BF28
:101B180090F0000F04BF0021704730B54FF4806487
:101B280004F1320410F0004548BF40424FF0000174
:101B38003EE700BF42004FEAE2014FEA31014FEAB7
:101B480002701FBF12F07F4393F07F4F81F0605106
:101B5800704732F07F4208BF704793F07F4F04BF51
:101B680041F40021704730B54FF4607401F000452E
:101B780021F000411CE700BF50EA010208BF70478E
:101B880030B54FF000050AE050EA010208BF70477F
:101B980030B511F0004502D5404261EB41014FF4E8
:101BA800806404F132045FEA915C3FF4D8AE4FF0F0
:101BB80003025FEADC0C18BF03325FEADC0C18BFD3
:101BC800033202EBDC02C2F1200300FA03FC20FA24
:101BD80002F001FA03FE40EA0E0021FA02F1144471
:101BE800BDE600BF4FF0FF3C06E000BF4FF0010C20
:101BF80002E000BF4FF0010C4DF804CD4FEA410C54
:101C08007FEA6C5C4FEA430C18BF7FEA6C5C1BD020
:101C180001B050EA410C0CBF52EA430C91EA030FA1
:101C280002BF90EA020F0020704710F1000F91EAFE
:101C3800030F58BF994208BF90422CBFD8176FEACC
:101C4800E37040F0010070474FEA410C7FEA6C5C9A
:101C580002D150EA013C07D14FEA430C7FEA6C5CA1
:101C6800D6D152EA033CD3D05DF8040B704700BFCD
:101C78008446104662468C461946634600E000BF1B
:101C880001B5FFF7B7FF002848BF10F1000F01BDED
:101C98004DF808EDFFF7F4FF0CBF012000205DF8B8
:101CA80008FB00BF4DF808EDFFF7EAFF34BF01203D
:101CB80000205DF808FB00BF4DF808EDFFF7E0FFD6
:101CC80094BF012000205DF808FB00BF4DF808ED27
:101CD800FFF7CEFF94BF012000205DF808FB00BF8E
:101CE8004DF808EDFFF7C4FF34BF012000205DF870
:101CF80008FB00BF4FEA410212F5001215D211D5B8
:101D08006FF47873B3EB625212D94FEAC12343F0F0
:101D1800004343EA505311F0004F23FA02F018BF72
:101D2800404270474FF00000704750EA013005D13B
:101D380011F0004008BF6FF0004070474FF00000FE
:101D4800704700BF4FEA4102B2F1E04324BFB3F548
:101D5800001CDCF1FE5C0DD901F0004C4FEAC0021A
:101D68004CEA5070B2F1004F40EB830008BF20F0FE
:101D78000100704711F0804F21D113F13872BCBFB8
:101D880001F00040704741F480114FEA5252C2F10D
:101D98001802C2F1200C10FA0CF320FA02F018BF56
:101DA80040F001004FEAC1234FEAD32303FA0CFCA9
:101DB80040EA0C0023FA02F34FEA4303CCE77FEA38
:101DC800625307D150EA01331EBF4FF0FE4040F482
:101DD8004000704701F0004040F0FE4040F4000031
:101DE800704700BF10B5054C237833B9044B13B1C5
:101DF8000448AFF300800123237010BD10000020B9
:101E080000000000EC51000808B5034B1BB1034962
:101E18000348AFF3008008BD000000001400002054
:101E2800EC51000880B500AF01F0B6F900F020F8D9
:101E380000F0E0F800F00EF900F0B6F903F042F80F
:101E4800A3220121084803F0BDF803F097F90346DF
:101E5800064A136000F056F800F064F80A2001F012
:101E68000BFA00BFF6E700BF300000202C0000206E
:101E780080B594B000AF07F1180338220021184646
:101E8800FEF7A6F93B1D00221A605A609A60DA60D4
:101E98001A61002002F0D8FA0123BB614FF48033A5
:101EA800FB6102237B630323BB630223FB6355238C
:101EB8003B6402237B640223BB640223FB6407F1B7
:101EC8001803184601F0FAF90346002B01D000F078
:101ED80083F80F237B600323BB600023FB60002390
:101EE8003B6100237B613B1D0421184601F0F8FC8F
:101EF8000346002B01D000F06FF800BF5037BD46F5
:101F080080BD000080B500AFA3220121044803F082
:101F180059F8A2220121024803F054F800BF80BDFD
:101F280030000020B0B582B000AF274B1B681B689B
:101F38001846FFF7FFFD02460B4643EC102BFEF751
:101F4800C3F955EC104B214B1B681846FFF7F2FDFF
:101F580002460B4620462946FFF75EFB02460B4623
:101F680019490C6810461946FFF7ECFE03466361F1
:101F7800154B1B685B6900EE103A0121144803F009
:101F880039F800237B60104B1B68DB6807EE903A3A
:101F9800F0EEE77A9FED0F7AF4EEC77AF1EE10FAD9
:101FA80000DC0CE07B6801337B6004E0CF22012178
:101FB800074803F007F87B68B3F5FA7FF6DC00BF43
:101FC8000837BD46B0BD00BF2C000020000000202F
:101FD800300000200000484280B500AF72B600BF54
:101FE8000321034800F034FC00BF00BF80BD00BFE0
:101FF8003000002080B485B000AF154BDB6C144A6C
:1020080043F02003D364124BDB6C03F02003FB6026
:10201800FB680F4BDB6C0E4A43F00103D3640C4B97
:10202800DB6C03F00103BB60BB68094BDB6C084A3F
:1020380043F00203D364064BDB6C03F002037B60BE
:102048007B6800BF1437BD465DF8047B704700BF4E
:102058000010024080B500AF1F4B204A1A601E4B8B
:1020680000225A601C4B00229A601B4B0022DA6047
:10207800194B00221A74184B00225A74164B00226E
:102088009A74154B11225A61134B01229A61124B13
:102098000522DA61104B04221A620F4B11225A6290
:1020A8000D4B01229A620C4B0522DA620A4B04227C
:1020B8001A63094B08225A63074B00229A63064B9E
:1020C8000022DA63044800F033F90346002B01D0FC
:1020D800FFF782FF00BF80BD300000200064004091
:1020E80080B59EB000AF786007F1640300221A60E3
:1020F8005A609A60DA601A6107F1100354220021CD
:102108001846FEF765F87B681B68244A934240D15D
:102118004FF480533B614FF00073BB6407F1100329
:10212800184601F0C1FD0346002B01D0FFF754FF0C
:102138001B4B9B6D1A4A43F000739365184B9B6DBC
:1021480003F00073FB60FB68154BDB6C144A43F02B
:102158000203D364124BDB6C03F00203BB60BB6861
:102168004FF440737B660223BB660023FB660023A3
:102178003B6709237B6707F164031946094801F0A7
:10218800E1FF00220021152002F0EDFA152002F0EF
:1021980004FB00BF7837BD4680BD00BF0064004027
:1021A800001002400004004880B584B000AF3B1D19
:1021B80000221A605A609A60144B154A1A60134B31
:1021C8009F225A60114B00229A60104B6322DA60FA
:1021D8000E4B00229A610D4802F0F9FA0346002BD3
:1021E80001D0FFF7F9FE00237B600023FB603B1D55
:1021F8001946064802F078FD0346002B01D0FFF788
:10220800EBFE00BF1037BD4680BD00BF9400002024
:102218000010004080B584B000AF78607B681B6810
:102228000D4A934213D10D4B9B6D0C4A43F010039A
:1022380093650A4B9B6D03F01003FB60FB6800225B
:102248000021362002F08FFA362002F0A6FA00BFED
:102258001037BD4680BD00BF00100040001002408E
:1022680080B400AF00BFFDE780B400AF00BFFDE75A
:1022780080B400AF00BFFDE780B400AF00BFFDE74A
:1022880080B400AF00BFFDE780B400AF00BFBD461B
:102298005DF8047B704780B400AF00BFBD465DF8B1
:1022A800047B704780B400AF00BFBD465DF8047B77
:1022B800704780B500AF00F0C1FF00BF80BD0000CF
:1022C80080B500AF024800F0E3FC00BF80BD00BF4E
:1022D8003000002080B500AF024802F0CFFA00BFFE
:1022E80080BD00BF9400002080B582B000AF0F4BC6
:1022F8001B6E0E4A43F0010313660C4B1B6E03F072
:1023080001037B607B68094B9B6D084A43F080534F
:102318009365064B9B6D03F080533B603B6802F06E
:1023280037F900BF0837BD4680BD00BF0010024026
:1023380080B584B000AF78607B68002B01D10123A1
:1023480047E17B6893F85C30DBB2002B06D17B68F1
:10235800002283F85D207868FFF7C2FE7B681B685F
:102368009A697B681B6822F010029A6100F078FF76
:10237800F86012E000F074FF0246FB68D31A0A2BDB
:102388000BD97B681B6E43F001027B681A667B6879
:10239800032283F85C2001231BE17B681B689B698F
:1023A80003F00803082BE5D07B681B689A697B68F3
:1023B8001B6842F001029A6100F052FFF86012E0D7
:1023C80000F04EFF0246FB68D31A0A2B0BD97B6834
:1023D8001B6E43F001027B681A667B68032283F850
:1023E8005C200123F5E07B681B689B6903F001030F
:1023F800002BE5D07B681B689A697B681B6842F0F4
:1024080002029A617B681B68744A934203D1744A3A
:102418007B685B6813607B681B7C012B08D17B6839
:102428001B689A697B681B6822F040029A6107E082
:102438007B681B689A697B681B6842F040029A6156
:102448007B685B7C012B08D17B681B689A697B6879
:102458001B6842F480429A6107E07B681B689A69AE
:102468007B681B6822F480429A617B689B7C012B05
:1024780008D17B681B689A697B681B6822F48052C4
:102488009A6107E07B681B689A697B681B6842F45D
:1024980080529A617B681B689B6923F440717B6852
:1024A8009A687B681B680A439A617B681B689A690B
:1024B8007B681B6822F0A4029A617B681B681A6912
:1024C8007B681B6822F010021A617B68DB68012BAD
:1024D80008D17B681B689A697B681B6842F0040214
:1024E8009A612CE07B68DB68002B28D07B68DB686E
:1024F800022B1CD07B681B689A697B681B6842F0BA
:1025080080029A617B681B681A697B681B6842F0C5
:1025180010021A617B68DB68032B10D17B681B688B
:102528009A697B681B6842F020029A6107E07B6821
:102538001B689A697B681B6842F020029A617B6875
:102548009B69013B5A067B68DB69013B1B021A4306
:102558007B681B6A013B42EA03017B685B69013BBC
:102568001A047B681B680A43DA617B689B68B3F5C9
:10257800407F15D17B689B6A5A1E7B68DB6A013BEA
:102588001B021A437B681B6B013B1B0142EA0301D8
:102598007B685B6A013B1A047B681B680A43DA6044
:1025A8007B681B68D3F8C0107B68DA6B7B681B6894
:1025B8000A43C3F8C020786800F006FD7B68002253
:1025C8009A657B6800221A667B68012283F85C2082
:1025D800002318461037BD4680BD00BF0064004088
:1025E8000065004080B487B000AF786039607B68D0
:1025F80093F85C30FB75FB7D012B02D0FB7D022B31
:102608003DD13B681B68002B19D13B689B689A0732
:102618003B68DB68DB061A433B681B691B041A43EB
:102628003B685B6913433B617B681A6C3B685B687A
:102638009B001344BB60BB683A691A601DE03B68A5
:10264800DB685A073B681B6913433B613B689B681F
:102658009A073B685B691343FB607B685A6C3B686D
:102668005B68DB001344BB60BB683A691A60BB68EF
:102678000433BB60BB68FA681A60002306E07B6815
:102688001B6E43F002027B681A66012318461C374A
:10269800BD465DF8047B704780B483B000AF7860B6
:1026A8007B6893F85C30DBB2012B10D17B68022287
:1026B80083F85C207B681B689A697B681B6822F03A
:1026C80001029A617B6800221A66002306E07B6893
:1026D8001B6E43F004027B681A66012318460C3708
:1026E800BD465DF8047B704780B485B000AF786064
:1026F8000023FB607B6893F85C30DBB2022B56D179
:102708007B681B689A697B681B6842F001029A61C2
:1027180011E0FB680A2B0BD97B681B6E43F00102A2
:102728007B681A667B68032283F85C20012345E0F6
:10273800FB680133FB607B681B689B6903F001033E
:10274800002BE6D00023FB607B681B689A697B68D6
:102758001B6822F010029A6111E0FB680A2B0BD962
:102768007B681B6E43F001027B681A667B68032254
:1027780083F85C20012321E0FB680133FB607B6860
:102788001B689B6903F00803082BE6D07B681B686D
:102798009A697B681B6842F002029A617B68002292
:1027A8009A657B68012283F85C20002306E07B6839
:1027B8001B6E43F008027B681A660123184614371B
:1027C800BD465DF8047B704780B586B000AFF86001
:1027D800B9607A60FB6893F85C30DBB2022B2CD1CD
:1027E800FB681B68D3F8C43003F40013002B07D030
:1027F800FB681B6E43F40072FB681A66012323E032
:10280800FB681B68D3F8C4301B0C03F003037B611F
:102818007B697A68B968F86800F042FCFB681B6855
:1028280001217A6901FA02F2C3F8CC2001227B69FE
:102838009A40FB689A65002306E0FB681B6E43F02C
:102848000802FB681A66012318461837BD4680BD82
:1028580080B483B000AF786039607B6893F85C30EF
:10286800DBB2022B06D17B681B683A68C3F8D0201C
:10287800002306E07B681B6E43F008027B681A663B
:10288800012318460C37BD465DF8047B70470000ED
:1028980080B48BB000AFF860B9607A603B60002309
:1028A800FB61FB6893F85C30FB76FB7E022B40F003
:1028B800E880BB68402B37D1FB681B68D3F89030A1
:1028C80003F00F03002B07D1FB681B6E43F48072E3
:1028D800FB681A660123DBE0FB681B68D3F89030BD
:1028E80003F08073B3F1807F0AD1FB681B68D3F8CB
:1028F800803003F40073B3F5007F01D10123FB613D
:10290800FB681B68D3F890301B0A03F00303FA69CD
:102918001344FB61FB68996CFA691346DB001344A6
:10292800DB000B447B6236E0FB681B68D3F8983009
:1029380003F00F03002B07D1FB681B6E43F4807272
:10294800FB681A660123A3E0FB681B68D3F898307C
:1029580003F08073B3F1807F0AD1FB681B68D3F85A
:10296800803003F48073B3F5807F01D10123FB61CC
:10297800FB681B68D3F898301B0A03F00303FA6955
:102988001344FB61FB68D96CFA691346DB001344F6
:10299800DB000B447B627B6A1B6803F080427B6828
:1029A8005A607B685B68002B07D17B6A1B689B0CAD
:1029B800C3F30A027B681A6005E07B6A1B6823F090
:1029C80060427B681A607B6A1B6803F000527B6870
:1029D8009A607B6A1B6803F000427B681A617B6A15
:1029E80004337B627B6A1B689AB27B68DA617B6A14
:1029F8001B681B0C03F00F027B68DA607B6A1B689C
:102A080003F480127B685A617B6A1B6803F4001226
:102A18007B689A617B6A1B681B0E03F07F027B68E8
:102A28001A627B6A1B68DA0F7B685A627B6A043316
:102A38007B627B6A7B6100233B620AE07A693B6ABE
:102A48001A4439683B6A0B4412781A703B6A01339E
:102A58003B627B68DB68114AD35C1A463B6A934247
:102A6800ECD3BB68402B05D1FB681B68FA69C3F837
:102A7800942004E0FB681B68FA69C3F89C200023D3
:102A880006E0FB681B6E43F00802FB681A66012328
:102A980018462C37BD465DF8047B7047E0530008A4
:102AA80080B485B000AF78607B681B68D3F8C43009
:102AB80003F00703FB60FB6818461437BD465DF852
:102AC800047B704780B487B000AFF860B9607A6063
:102AD800FB6893F85C30FB75FB7D012B03D0FB7D15
:102AE800022B40F0C880FB681B689B6D3B61BB688C
:102AF80003F00703002B04D03B6903F00103002B0C
:102B08003BD0BB6803F03803002B04D03B6903F0CB
:102B18000203002B31D0BB6803F4E073002B04D010
:102B28003B6903F00403002B27D0BB6803F4F05380
:102B3800002B04D03B6903F00803002B1DD0BB68B1
:102B480003F46043002B04D03B6903F01003002B0F
:102B580013D0BB6803F44033002B04D03B6903F067
:102B68002003002B09D0BB6803F47C03002B0CD096
:102B78003B6903F04003002B07D1FB681B68DA6D43
:102B8800FB681B6842F00102DA65BB6803F00703C3
:102B9800002B04D03B6903F00103002B3BD1BB6839
:102BA80003F03803002B04D03B6903F00203002B29
:102BB80031D1BB6803F4E073002B04D03B6903F008
:102BC8000403002B27D1BB6803F4F053002B04D077
:102BD8003B6903F00803002B1DD1BB6803F4604375
:102BE800002B04D03B6903F01003002B13D1BB6802
:102BF80003F44033002B04D03B6903F02003002B7F
:102C080009D1BB6803F47C03002B0CD03B6903F0AB
:102C18004003002B07D0FB681B68DA6DFB681B6854
:102C280042F00202DA65BB6803F08003002B09D08A
:102C3800FB681B68D3F8DC10FB681B687A680A43DA
:102C4800C3F8DC20BB6803F48073002B09D0FB6851
:102C58001B68D3F8E010FB681B687A680A43C3F85E
:102C6800E020FB681B68596DFB681B68BA680A435B
:102C78005A65002306E0FB681B6E43F00202FB68FE
:102C88001A66012318461C37BD465DF8047B704759
:102C980080B58CB000AF78607B681B681B6D03F44F
:102CA800E053FB627B681B685B6DFA6A1340FB624A
:102CB8007B681B681B6D03F00703BB627B681B689E
:102CC8005B6DBA6A1340BB627B681B681B6D03F0BF
:102CD80038037B627B681B685B6D7A6A13407B6292
:102CE8007B681B681B6D03F471033B627B681B6880
:102CF8005B6D3A6A13403B627B681B681B6D03F48B
:102D08006023FB617B681B685B6DFA691340FB619C
:102D18007B681B685B6DBB617B681B681B6D7B6197
:102D28007B699B0903F00103002B0CD0BB699B094D
:102D380003F00103002B06D07B681B6840221A654C
:102D4800786800F022F97B691B0A03F00103002B65
:102D58001AD0BB691B0A03F00103002B14D07B684F
:102D68001B68D3F8D8303B617B681B68D3F8E03028
:102D78003A6913403B617B681B684FF480721A659F
:102D88003969786800F0E2F8FB6A002B07D07B68A5
:102D98001B68FA6A1A65F96A786800F0ACF8BB6AC9
:102DA800002B07D07B681B68BA6A1A65B96A78680D
:102DB80002F0E4F87B6A002B07D07B681B687A6A0C
:102DC8001A65796A786800F0A1F87B695B0A03F0F4
:102DD8000103002B0DD0BB695B0A03F00103002B34
:102DE80007D07B681B684FF400721A65786800F09A
:102DF80098F87B69DB0903F00103002B19D0BB6944
:102E0800DB0903F00103002B13D07B681B68D3F8A0
:102E1800D430FB607B681B68D3F8DC30FA68134059
:102E2800FB607B681B6880221A65F968786800F087
:102E380082F87B695B0B03F00103002B0DD0BB69A3
:102E48005B0B03F00103002B07D07B681B684FF472
:102E580000521A65786800F084F87B69DB0B03F090
:102E68000103002B0DD0BB69DB0B03F00103002B22
:102E780007D07B681B684FF400421A65786800F039
:102E88007AF87B699B0B03F00103002B10D0BB6918
:102E98009B0B03F00103002B0AD07B681B684FF4DF
:102EA80080421A657B681B6E43F080027B681A6655
:102EB800FB69002B07D07B681B68FA691A65F969FA
:102EC800786800F076F83B6A002B09D07B681B68AD
:102ED8003A6A1A657B681A6E3B6A1A437B681A66F7
:102EE8007B681B6E002B02D0786800F058F800BF92
:102EF8003037BD4680BD80B483B000AF786039609C
:102F080000BF0C37BD465DF8047B704780B483B0C2
:102F180000AF7860396000BF0C37BD465DF8047BB0
:102F2800704780B483B000AF786000BF0C37BD46EF
:102F38005DF8047B704780B483B000AF7860396077
:102F480000BF0C37BD465DF8047B704780B483B082
:102F580000AF7860396000BF0C37BD465DF8047B70
:102F6800704780B483B000AF786000BF0C37BD46AF
:102F78005DF8047B704780B483B000AF786000BF11
:102F88000C37BD465DF8047B704780B483B000AF52
:102F9800786000BF0C37BD465DF8047B704780B48D
:102FA80083B000AF786000BF0C37BD465DF8047B86
:102FB800704780B483B000AF7860396000BF0C37C9
:102FC800BD465DF8047B704780B485B000AF78607B
:102FD800304BBB607B681B682F4A934203D1BB68A8
:102FE80003F55473BB607B681B682C4A934203D17A
:102FF800BB6803F5D463BB607B68BA681A647B68F6
:103008001B68D3F8803023F4F8117B685B6B1A04D3
:103018007B681B680A43C3F88020BB6803F1700211
:103028007B685A647B681B68D3F8803023F0706132
:103038007B689B6B1A067B681B680A43C3F8802071
:10304800BB6803F1B0027B689A64BB6803F5C4727D
:103058007B68DA64BB6803F518727B681A65BB681D
:1030680003F51E727B685A65BB68FB6005E0FB6868
:1030780000221A60FB680433FB60BB6803F55473D5
:10308800FA689A42F3D300BF00BF1437BD465DF813
:10309800047B704700A4004000680040006C0040BA
:1030A80080B489B000AFF860B9607A603B60BB68F3
:1030B8005B68002B0AD1BB681A69BB689B681A4316
:1030C800BB681B689B041343FB610AE0BB681A6971
:1030D800BB689B681A43BB681B68134343F0804373
:1030E800FB61BB681B6A1A06BB68DB691A43BB68CD
:1030F8009B691A43BB685B691A43BB68DB681B049E
:1031080013433B61FB68596D3A681346DB0013446F
:10311800DB000B44BB61BB69FA691A60BB69043305
:10312800BB61BB693A691A60BB690433BB610023A0
:103138007B6120E07B6903337A6813441B781A06A5
:103148007B69023379680B441B781B041A437B693B
:10315800013379680B441B781B02134379687A6939
:103168000A4412781A43BB691A60BB690433BB610D
:103178007B6904337B61BB68DB68064AD35C1A460B
:103188007B699342D6D300BF00BF2437BD465DF8A4
:10319800047B7047E053000880B582B000AF00237D
:1031A800FB71032001F0D4FA0F2000F00DF803465C
:1031B800002B02D00123FB7101E0FFF795F8FB79A2
:1031C80018460837BD4680BD80B584B000AF78602A
:1031D8000023FB73164B1B68002B22D0154B1A6873
:1031E800134B1B684FF47A71B1FBF3F3B2FBF3F3A3
:1031F800184601F0E0FA0346002B0FD17B680F2B2D
:1032080009D8002279684FF0FF3001F0ACFA0A4A79
:103218007B68136007E00123FB7304E00123FB7361
:1032280001E00123FB73FB7B18461037BD4680BDC8
:10323800080000200C0000200400002080B400AF2B
:10324800054B1A68054B1B681344034A136000BFFB
:10325800BD465DF8047B7047E000002008000020B0
:1032680080B400AF034B1B681846BD465DF8047B6D
:10327800704700BFE000002080B584B000AF7860E0
:10328800FFF7EEFFB8607B68FB60FB68B3F1FF3FB8
:1032980004D0094B1B68FA681344FB6000BFFFF7B2
:1032A800DFFF0246BB68D31AFA689A42F7D800BF14
:1032B80000BF1037BD4680BD0800002080B588B02B
:1032C80000AF78607B68002B01D10123FEE27B68A8
:1032D8001B6803F00103002B75D0974B9B6803F024
:1032E8000C03BB61944BDB6803F003037B61BB6990
:1032F8000C2B02D17B69032B02D0BB69082B0BD1A5
:103308008D4B1B6803F40033002B5BD07B685B6834
:10331800002B57D10123D9E27B685B68B3F5803F66
:1033280006D1854B1B68844A43F4803313601DE043
:103338007B685B68B3F5A02F0CD17F4B1B687E4A76
:1033480043F4802313607C4B1B687B4A43F480332F
:1033580013600BE0784B1B68774A23F480331360C3
:10336800754B1B68744A23F4802313607B685B6881
:10337800002B13D0FFF774FF386108E0FFF770FFE8
:1033880002463B69D31A642B01D903239EE26A4B98
:103398001B6803F40033002BF0D014E0FFF760FF44
:1033A800386108E0FFF75CFF02463B69D31A642BDB
:1033B80001D903238AE2604B1B6803F40033002B16
:1033C800F0D100E000BF7B681B6803F00203002B0C
:1033D80075D0594B9B6803F00C03BB61564BDB68F7
:1033E80003F003037B61BB690C2B02D17B69022BC1
:1033F80002D0BB69042B1FD14F4B1B6803F48063B9
:10340800002B05D07B68DB68002B01D101235DE22E
:10341800494B5B6823F0FE427B681B691B064649E3
:1034280013434B60454B1B681846FFF7CDFE034618
:10343800002B43D0012349E27B68DB68002B23D0B3
:103448003D4B1B683C4A43F480731360FFF708FF49
:10345800386108E0FFF704FF02463B69D31A022BE4
:1034680001D9032332E2344B1B6803F48063002B39
:10347800F0D0314B5B6823F0FE427B681B691B066A
:103488002D4913434B601AE02B4B1B682A4A23F43F
:1034980080731360FFF7E4FE386108E0FFF7E0FE91
:1034A80002463B69D31A022B01D903230EE2224BB1
:1034B8001B6803F48063002BF0D100E000BF7B6839
:1034C8001B6803F00803002B41D07B685B69002B65
:1034D8001CD0194BD3F89430174A43F00103C2F8B3
:1034E8009430FFF7BDFE386108E0FFF7B9FE0246E9
:1034F8003B69D31A022B01D90323E7E10E4BD3F81A
:10350800943003F00203002BEFD020E00A4BD3F8ED
:103518009430094A23F00103C2F89430FFF7A0FE63
:1035280038610DE0FFF79CFE02463B69D31A022B77
:1035380006D90323CAE100BF00100240040000209E
:103548008C4BD3F8943003F00203002BEAD17B684C
:103558001B6803F00403002B00F0A6800023FB7710
:10356800844B9B6D03F08053002B01D1012300E0B5
:103578000023002B0DD07F4B9B6D7E4A43F0805378
:1035880093657C4B9B6D03F08053FB60FB680123C4
:10359800FB77794B1B6803F48073002B18D1764BAB
:1035A8001B68754A43F480731360FFF759FE38614E
:1035B80008E0FFF755FE02463B69D31A022B01D9F2
:1035C800032383E16C4B1B6803F48073002BF0D05A
:1035D8007B689B68012B08D1664BD3F89030654A0D
:1035E80043F00103C2F8903024E07B689B68052B08
:1035F80010D1604BD3F890305E4A43F00403C2F810
:1036080090305C4BD3F890305A4A43F00103C2F82B
:1036180090300FE0574BD3F89030564A23F001030F
:10362800C2F89030534BD3F89030524A23F0040339
:10363800C2F890307B689B68002B16D0FFF710FE0D
:1036480038610AE0FFF70CFE02463B69D31A41F2E3
:103658008832934201D9032338E1464BD3F890309E
:1036680003F00203002BEDD015E0FFF7F9FD3861F8
:103678000AE0FFF7F5FD02463B69D31A41F28832AA
:10368800934201D9032321E13A4BD3F8903003F058
:103698000203002BEDD1FB7F012B05D1354B9B6D30
:1036A800344A23F0805393657B681B6803F020033A
:1036B800002B3CD07B689B69002B1CD02D4BD3F88A
:1036C80098302C4A43F00103C2F89830FFF7C8FD40
:1036D800386108E0FFF7C4FD02463B69D31A022BA4
:1036E80001D90323F2E0234BD3F8983003F0020307
:1036F800002BEFD01BE01F4BD3F898301D4A23F066
:103708000103C2F89830FFF7ABFD386108E0FFF716
:10371800A7FD02463B69D31A022B01D90323D5E042
:10372800144BD3F8983003F00203002BEFD17B68D9
:10373800DB69002B00F0C9800E4B9B6803F00C037B
:103748000C2B00F083807B68DB69022B5ED1094B70
:103758001B68084A23F080731360FFF781FD386106
:103768000CE0FFF77DFD02463B69D31A022B05D911
:103778000323ABE00010024000700040554B1B686B
:1037880003F00073002BECD1524BDA68524B134014
:103798007A68116A7A68526A013A120111437A68A2
:1037A800926A120211437A68126B5208013A520562
:1037B80011437A68526B5208013A520611437A68EB
:1037C800D26AD2060A4343491343CB60414B1B6874
:1037D800404A43F0807313603E4BDB683D4A43F038
:1037E8008073D360FFF73CFD386108E0FFF738FDD0
:1037F80002463B69D31A022B01D9032366E0354BF5
:103808001B6803F00073002BF0D05EE0314B1B689F
:10381800304A23F080731360FFF722FD386108E017
:10382800FFF71EFD02463B69D31A022B01D9032379
:103838004CE0284B1B6803F00073002BF0D1254B9C
:10384800DA682449254B1340CB603EE07B68DB698E
:10385800012B01D1012339E01E4BDB687B617B69B9
:1038680003F003027B681B6A9A422CD17B6903F040
:10387800F0027B685B6A013B1B019A4223D17B699A
:1038880003F4FE427B689B6A1B029A421BD17B6948
:1038980003F078427B68DB6ADB069A4213D17B69C6
:1038A80003F4C0027B681B6B5B08013B5B059A4213
:1038B80009D17B6903F0C0627B685B6B5B08013BE5
:1038C8005B069A4201D0012300E000231846203706
:1038D800BD4680BD001002400C809F01FCFFEEFE3B
:1038E80080B586B000AF7860396000237B617B6863
:1038F800002B01D101231EE1914B1B6803F00F033C
:103908003A689A4210D98E4B1B6823F00F028C49F3
:103918003B6813430B608A4B1B6803F00F033A683C
:103928009A4201D0012306E17B681B6803F001037A
:10393800002B73D07B685B68032B29D1814B1B68F4
:1039480003F00073002B01D10123F4E000F066F9C5
:1039580038613B697C4A93423FD97A4B9B6803F0B4
:10396800F003002B09D07B681B6803F00203002BCF
:1039780033D07B689B68002B2FD1724B9B6823F058
:10398800F003704A43F08003936080237B6124E056
:103998007B685B68022B07D16A4B1B6803F4003312
:1039A800002B09D10123C6E0664B1B6803F4806332
:1039B800002B01D10123BEE000F0CEF838613B694D
:1039C800614A934209D95F4B9B6823F0F0035D4A33
:1039D80043F08003936080237B615A4B9B6823F0FC
:1039E80003027B685B68574913438B60FFF738FC19
:1039F800F8600AE0FFF734FC0246FB68D31A41F28C
:103A08008832934201D9032395E04E4B9B6803F01B
:103A18000C027B685B689B009A42EBD17B681B6851
:103A280003F00203002B23D07B681B6803F0040318
:103A3800002B05D0434B9B68424A43F4E0639360F4
:103A48007B681B6803F00803002B07D03D4B9B687D
:103A580023F47C533B4A43F4E0639360394B9B68FF
:103A680023F0F0027B689B68364913438B6008E0BB
:103A78007B69802B05D1334B9B68324A23F0F003D6
:103A880093602F4B1B6803F00F033A689A421DD2CC
:103A98002B4B1B6823F00F0229493B6813430B602B
:103AA800FFF7DEFBF8600AE0FFF7DAFB0246FB6887
:103AB800D31A41F28832934201D903233BE0204BC9
:103AC8001B6803F00F033A689A42EDD17B681B68C4
:103AD80003F00403002B08D01A4B9B6823F4E06220
:103AE8007B68DB68174913438B607B681B6803F0AE
:103AF8000803002B09D0134B9B6823F460527B68A2
:103B08001B69DB000F4913438B6000F025F8024660
:103B18000C4B9B681B0903F00F030C49CB5C03F0AB
:103B28001F0322FA03F30A4A13600A4B1B6818465C
:103B3800FFF74AFB034618461837BD4680BD00BF4D
:103B4800002002400010024000B4C404F0530008F2
:103B58000C0000200400002080B487B000AF2C4B7C
:103B68009B6803F00C03042B02D12A4B3B6147E00E
:103B7800274B9B6803F00C03082B02D1264B3B61B3
:103B88003EE0234B9B6803F00C030C2B36D1204BF3
:103B9800DB6803F00303FB601D4BDB681B0903F0C4
:103BA8000F030133BB60FB68032B0CD11A4ABB68B7
:103BB800B2FBF3F3164AD268120A02F07F0202FB44
:103BC80003F37B610CE0134ABB68B2FBF3F3104AC2
:103BD800D268120A02F07F0202FB03F37B6100BF86
:103BE8000B4BDB685B0E03F0030301335B007B6068
:103BF8007A697B68B2FBF3F33B6101E000233B6128
:103C08003B6918461C37BD465DF8047B704700BF0A
:103C1800001002400024F40000127A0080B487B03B
:103C280000AF1E4BDB6803F003033B611B4BDB68F3
:103C38001B0903F00F030133FB603B69032B0CD115
:103C4800174AFB68B2FBF3F3144AD268120A02F06F
:103C58007F0202FB03F37B610CE0124AFB68B2FBB4
:103C6800F3F30E4AD268120A02F07F0202FB03F352
:103C78007B6100BF094BDB685B0E03F00303013374
:103C88005B00BB607A69BB68B2FBF3F37B607B685F
:103C980018461C37BD465DF8047B7047001002408B
:103CA80000127A000024F40080B586B000AF786076
:103CB8000023FB740023BB747B681B6803F4002398
:103CC800002B00F0988000237B74434B9B6D03F01E
:103CD8008053002B0DD1404B9B6D3F4A43F08053DE
:103CE80093653D4B9B6D03F08053BB60BB6801231C
:103CF8007B743A4B1B68394A43F480731360FFF7AF
:103D0800AFFAF86009E0FFF7ABFA0246FB68D31A8E
:103D1800022B02D90323FB7405E0304B1B6803F424
:103D28008073002BEFD0FB7C002B59D12A4BD3F8A2
:103D3800903003F440737B617B69002B1ED07B6855
:103D48001B6D7A699A4219D0234BD3F8903023F42B
:103D580040737B61204BD3F890301F4A43F4803383
:103D6800C2F890301C4BD3F890301B4A23F48033B0
:103D7800C2F89030184A7B69C2F890307B6903F02A
:103D88000103002B16D0FFF76BFAF8600BE0FFF782
:103D980067FA0246FB68D31A41F28832934202D985
:103DA8000323FB7406E00C4BD3F8903003F00203B6
:103DB800002BECD0FB7C002B0BD1074BD3F89030B9
:103DC80023F440727B681B6D03491343C1F890309C
:103DD80008E0FB7CBB7405E0001002400070004066
:103DE800FB7CBB747B7C012B05D1A74B9B6DA64A42
:103DF80023F0805393657B681B6803F00103002B55
:103E08000AD0A14BD3F8883023F003027B685B68A3
:103E18009D491343C1F888307B681B6803F002038F
:103E2800002B0AD0984BD3F8883023F00C027B681B
:103E38009B6895491343C1F888307B681B6803F079
:103E48000403002B0AD0904BD3F8883023F03002BB
:103E58007B68DB688C491343C1F888307B681B6832
:103E680003F00803002B0AD0874BD3F8883023F0DF
:103E7800C0027B681B6984491343C1F888307B689A
:103E88001B6803F01003002B0AD07F4BD3F888304F
:103E980023F440727B685B697B491343C1F888301F
:103EA8007B681B6803F02003002B0AD0764BD3F8FD
:103EB800883023F440627B689B6973491343C1F8D7
:103EC80088307B681B6803F04003002B0AD06E4BD8
:103ED800D3F8883023F440527B68DB696A4913437E
:103EE800C1F888307B681B6803F08003002B0AD078
:103EF800654BD3F8883023F440427B681B6A6249DB
:103F08001343C1F888307B681B6803F48073002B67
:103F18000AD05D4BD3F8883023F440327B685B6A63
:103F280059491343C1F888307B681B6803F4003390
:103F3800002B0AD0544BD3F89C3023F003027B6843
:103F48009B6A51491343C1F89C307B681B6803F492
:103F58000073002B0AD04C4BD3F8883023F440224E
:103F68007B68DB6A48491343C1F888307B681B6863
:103F780003F48063002B15D0434BD3F8883023F427
:103F880040127B681B6B40491343C1F888307B683B
:103F98001B6BB3F5801F05D13B4BDB683A4A43F4F2
:103FA8008013D3607B681B6803F40063002B15D073
:103FB800354BD3F8883023F440027B685B6B324979
:103FC8001343C1F888307B685B6BB3F5800F05D16C
:103FD8002D4BDB682C4A43F48013D3607B681B6845
:103FE80003F48053002B15D0274BD3F8883023F0E7
:103FF80040727B689B6B24491343C1F888307B6807
:104008009B6BB3F1807F05D11F4BDB681E4A43F4DD
:104018008013D3607B681B6803F40053002B15D012
:10402800194BD3F8883023F040627B68DB6B164964
:104038001343C1F888307B68DB6BB3F1006F05D19F
:10404800114BDB68104A43F48013D3607B681B680C
:1040580003F48043002B19D00B4BD3F8883023F09E
:1040680040627B681B6C08491343C1F888307B6841
:104078001B6CB3F1006F09D1034BDB68024A43F4B0
:104088008013D36002E000BF001002407B681B6809
:1040980003F40043002B15D0294BD3F8883023F0C4
:1040A80040527B685B6C26491343C1F888307B68B3
:1040B8005B6CB3F1805F05D1214BDB68204A43F488
:1040C8008033D3607B681B6803F48033002B15D0E2
:1040D8001B4BD3F8883023F040427B689B6C18490F
:1040E8001343C1F888307B689B6CB3F1804F05D1CE
:1040F800134BDB68124A43F48033D3607B681B6838
:1041080003F48023002B15D00D4BD3F89C3023F4F7
:1041180040127B68DB6C0A491343C1F89C307B680A
:10412800DB6CB3F5001F05D1054BDB68044A43F48B
:104138008013D360BB7C18461837BD4680BD00BFCE
:104148000010024080B487B000AF78603960002367
:104158007B615AE13B681A6801217B6901FA03F324
:104168001340FB60FB68002B00F04C813B685B68E8
:1041780003F00303012B05D03B685B6803F00303DE
:10418800022B30D17B689B683B617B695B00032213
:1041980002FA03F3DB433A6913403B613B68DA6890
:1041A8007B695B0002FA03F33A6913433B617B685E
:1041B8003A699A607B685B683B6101227B6902FA15
:1041C80003F3DB433A6913403B613B685B681B09B7
:1041D80003F001027B6902FA03F33A6913433B6176
:1041E8007B683A695A603B685B6803F00303032BFA
:1041F80017D07B68DB683B617B695B00032202FAAE
:1042080003F3DB433A6913403B613B689A687B6977
:104218005B0002FA03F33A6913433B617B683A692E
:10422800DA603B685B6803F00303022B23D17B69E8
:10423800DA087B68083253F822303B617B6903F067
:1042480007039B000F2202FA03F3DB433A6913408A
:104258003B613B681A697B6903F007039B0002FA1C
:1042680003F33A6913433B617B69DA087B680832D8
:10427800396943F822107B681B683B617B695B00E6
:10428800032202FA03F3DB433A6913403B613B68BC
:104298005B6803F003027B695B0002FA03F33A6987
:1042A80013433B617B683A691A603B685B6803F4B7
:1042B8004033002B00F0A6805B4B1B6E5A4A43F03C
:1042C80001031366584B1B6E03F00103BB60BB6808
:1042D800564A7B699B08023352F823303B617B695D
:1042E80003F003039B000F2202FA03F3DB433A694E
:1042F80013403B617B68B3F1904F1FD07B684C4AF9
:10430800934219D07B684B4A934213D07B684A4A40
:1043180093420DD07B68494A934207D07B68484A4C
:10432800934201D105230AE0062308E0042306E0AE
:10433800032304E0022302E0012300E000237A695A
:1043480002F00302920093403A6913433B613749F4
:104358007B699B0802333A6941F82320394B9B68F3
:104368003B61FB68DB433A6913403B613B685B6830
:1043780003F48013002B03D03A69FB6813433B61B5
:10438800304A3B6993602F4BDB683B61FB68DB433A
:104398003A6913403B613B685B6803F40013002BE8
:1043A80003D03A69FB6813433B61264A3B69D360F3
:1043B800244B5B683B61FB68DB433A6913403B6114
:1043C8003B685B6803F40033002B03D03A69FB6851
:1043D80013433B611B4A3B6953601A4B1B683B61A3
:1043E800FB68DB433A6913403B613B685B6803F455
:1043F8008033002B03D03A69FB6813433B61114AB1
:104408003B6913607B6901337B613B681A687B6990
:1044180022FA03F3002B7FF49DAE00BF00BF1C37C8
:10442800BD465DF8047B7047001002400000014063
:104438000004004800080048000C0048001000482C
:10444800001400480004014080B485B000AF7860D3
:104458007B68002B41D14B4B1B6803F4C063B3F559
:10446800806F31D1474BD3F88030464A23F48073AC
:10447800C2F88030434B1B6823F4C063414A43F4BD
:1044880000731360404B1B68322202FB03F33F4A60
:10449800A2FB03239B0C0133FB6002E0FB68013B9A
:1044A800FB60384B5B6903F48063B3F5806F02D11E
:1044B800FB68002BF2D1334B5B6903F48063B3F5DF
:1044C800806F58D1032357E02E4BD3F880302D4A04
:1044D80023F48073C2F880304DE07B68B3F5007F29
:1044E80041D1284B1B6803F4C063B3F5806F31D109
:1044F800244BD3F88030234A43F48073C2F88030C9
:10450800204B1B6823F4C0631E4A43F400731360F6
:104518001D4B1B68322202FB03F31C4AA2FB032338
:104528009B0C0133FB6002E0FB68013BFB60154B11
:104538005B6903F48063B3F5806F02D1FB68002BDD
:10454800F2D1104B5B6903F48063B3F5806F12D12D
:10455800032311E00B4BD3F880300A4A43F48073ED
:10456800C2F8803007E0074B1B6823F4C063054A94
:1045780043F480631360002318461437BD465DF882
:10458800047B7047007000400C00002083DE1B4352
:1045980080B400AF054B9B68044A43F480439360A2
:1045A80000BFBD465DF8047B704700BF0070004047
:1045B80080B485B000AF78607B6803F00703FB60C8
:1045C8000C4BDB68BB60BA684FF6FF031340BB6057
:1045D800FB681A02BB68134343F0BF6343F400331C
:1045E800BB60044ABB68D36000BF1437BD465DF8A2
:1045F800047B704700ED00E080B400AF044BDB683B
:104608001B0A03F007031846BD465DF8047B704794
:1046180000ED00E080B483B000AF0346FB7197F96A
:104628000730002B0BDBFB7903F01F02074997F9D2
:1046380007305B09012000FA02F241F8232000BF8D
:104648000C37BD465DF8047B704700BF00E100E011
:1046580080B483B000AF03463960FB7197F9073027
:10466800002B0ADB3B68DAB20C4997F907301201D4
:10467800D2B20B4483F800230AE03B68DAB2084957
:10468800FB7903F00F03043B1201D2B20B441A76F4
:1046980000BF0C37BD465DF8047B704700E100E0C1
:1046A80000ED00E080B489B000AFF860B9607A60CE
:1046B800FB6803F00703FB61FB69C3F10703042BE5
:1046C80028BF0423BB61FB690433062B02D9FB69AD
:1046D800033B00E000237B614FF0FF32BB6902FA25
:1046E80003F3DA43BB681A407B699A404FF0FF3105
:1046F8007B6901FA03F3D9437B680B4013431846DF
:104708002437BD465DF8047B7047000080B582B051
:1047180000AF78607B68013BB3F1807F01D3012350
:104728000FE00A4A7B68013B53600F214FF0FF30CE
:10473800FFF78EFF054B00229A60044B07221A6090
:10474800002318460837BD4680BD00BF10E000E0D2
:1047580080B582B000AF78607868FFF729FF00BFA6
:104768000837BD4680BD80B586B000AF0346B96046
:104778007A60FB73FFF740FF78617A68B9687869F7
:10478800FFF790FF024697F90F3011461846FFF7DA
:104798005FFF00BF1837BD4680BD80B582B000AF4F
:1047A8000346FB7197F907301846FFF733FF00BF40
:1047B8000837BD4680BD80B582B000AF78607868A4
:1047C800FFF7A4FF034618460837BD4680BD80B5ED
:1047D80082B000AF78607B68002B01D1012349E0EB
:1047E8007B6893F83D30DBB2002B06D17B68002252
:1047F80083F83C207868FDF70DFD7B68022283F87A
:104808003D207B681A687B6804331946104600F01F
:10481800B7F97B68012283F848207B68012283F876
:104828003E207B68012283F83F207B68012283F8C1
:1048380040207B68012283F841207B68012283F8AD
:1048480042207B68012283F843207B68012283F899
:1048580044207B68012283F845207B68012283F885
:1048680046207B68012283F847207B68012283F871
:104878003D20002318460837BD4680BD80B584B06A
:1048880000AF78607B681B68DB68FB607B681B682F
:104898001B69BB60BB6803F00203002B20D0FB68D8
:1048A80003F00203002B1BD07B681B686FF0020229
:1048B8001A617B6801221A777B681B689B6903F081
:1048C8000303002B03D0786800F03BF905E0786813
:1048D80000F02DF9786800F03EF97B6800221A771D
:1048E800BB6803F00403002B20D0FB6803F004032B
:1048F800002B1BD07B681B686FF004021A617B6871
:1049080002221A777B681B689B6903F44073002BAB
:1049180003D0786800F015F905E0786800F007F929
:10492800786800F018F97B6800221A77BB6803F0F2
:104938000803002B20D0FB6803F00803002B1BD0D2
:104948007B681B686FF008021A617B6804221A777B
:104958007B681B68DB6903F00303002B03D07868CE
:1049680000F0EFF805E0786800F0E1F8786800F00A
:10497800F2F87B6800221A77BB6803F01003002B5B
:1049880020D0FB6803F01003002B1BD07B681B684A
:104998006FF010021A617B6808221A777B681B681F
:1049A800DB6903F44073002B03D0786800F0C9F882
:1049B80005E0786800F0BBF8786800F0CCF87B6810
:1049C80000221A77BB6803F00103002B0CD0FB68A8
:1049D80003F00103002B07D07B681B686FF001020E
:1049E8001A61786800F099F8BB6803F08003002B1F
:1049F80004D1BB6803F40053002B0CD0FB6803F010
:104A08008003002B07D07B681B686FF402521A6181
:104A1800786800F009FABB6803F48073002B0CD0A7
:104A2800FB6803F08003002B07D07B681B686FF4DA
:104A380080721A61786800F001FABB6803F04003DD
:104A4800002B0CD0FB6803F04003002B07D07B68D9
:104A58001B686FF040021A61786800F086F8BB683E
:104A680003F02003002B0CD0FB6803F02003002B7D
:104A780007D07B681B686FF020021A61786800F025
:104A8800C9F9BB6803F48013002B0CD0FB6803F44E
:104A98008013002B07D07B681B686FF480121A61A3
:104AA800786800F0D5F9BB6803F40013002B0CD02C
:104AB800FB6803F40013002B07D07B681B686FF4B6
:104AC80000121A61786800F0CDF9BB6803F480031E
:104AD800002B0CD0FB6803F48003002B07D07B6805
:104AE8001B686FF480021A61786800F0C5F9BB682A
:104AF80003F40003002B0CD0FB6803F40003002B25
:104B080007D07B681B686FF400021A61786800F0B0
:104B1800BDF900BF1037BD4680BD80B483B000AF7B
:104B2800786000BF0C37BD465DF8047B704780B4E1
:104B380083B000AF786000BF0C37BD465DF8047BDA
:104B4800704780B483B000AF786000BF0C37BD46B3
:104B58005DF8047B704780B483B000AF786000BF15
:104B68000C37BD465DF8047B704780B483B000AF56
:104B7800786000BF0C37BD465DF8047B70470000C5
:104B880080B485B000AF786039607B681B68FB60D3
:104B98007B684C4A934217D07B68B3F1804F13D09F
:104BA8007B68494A93420FD07B68484A93420BD0AE
:104BB8007B68474A934207D07B68464A934203D0B2
:104BC8007B68454A934208D1FB6823F07003FB6079
:104BD8003B685B68FA681343FB607B68394A934219
:104BE80023D07B68B3F1804F1FD07B68364A93424D
:104BF8001BD07B68354A934217D07B68344A93426E
:104C080013D07B68334A93420FD07B68334A934270
:104C18000BD07B68324A934207D07B68314A934273
:104C280003D07B682C4A934208D1FB6823F4407375
:104C3800FB603B68DB68FA681343FB60FB6823F0A2
:104C480080023B685B691343FB607B68FA681A6003
:104C58003B689A687B68DA623B681A687B689A6284
:104C68007B68184A934213D07B681A4A93420FD044
:104C78007B681A4A93420BD07B68194A934207D043
:104C88007B68184A934203D07B68134A934203D146
:104C98003B681A697B681A637B6801225A617B68E2
:104CA8001B6903F00103012B05D17B681B6923F005
:104CB80001027B681A6100BF1437BD465DF8047BAA
:104CC800704700BF002C014000040040000800406D
:104CD800000C0040003401400050014000400140F9
:104CE800004401400048014080B485B000AF7860BE
:104CF80039607B6893F83C30012B01D1022374E0C2
:104D08007B68012283F83C207B68022283F83D20DF
:104D18007B681B685B68FB607B681B689B68BB6083
:104D28007B681B68344A934209D07B681B68334A06
:104D3800934204D07B681B68314A934208D1FB68D0
:104D480023F47003FB603B685B68FA681343FB60FD
:104D5800FB6823F0007323F07003FB603B681B685B
:104D6800FA681343FB607B681B68FA685A607B68C3
:104D78001B68214A934222D07B681B68B3F1804F9D
:104D88001DD07B681B681F4A934218D07B681B683C
:104D98001D4A934213D07B681B681C4A93420ED06D
:104DA8007B681B68154A934209D07B681B68184AC0
:104DB800934204D07B681B68114A93420CD1BB68AC
:104DC80023F08003BB603B689B68BA681343BB60F1
:104DD8007B681B68BA689A607B68012283F83D206B
:104DE8007B68002283F83C20002318461437BD4610
:104DF8005DF8047B704700BF002C0140003401407F
:104E0800005001400004004000080040000C004031
:104E18000040014080B483B000AF786000BF0C3719
:104E2800BD465DF8047B704780B483B000AF7860FE
:104E380000BF0C37BD465DF8047B704780B483B073
:104E480000AF786000BF0C37BD465DF8047B704743
:104E580080B483B000AF786000BF0C37BD465DF802
:104E6800047B704780B483B000AF786000BF0C3714
:104E7800BD465DF8047B704780B483B000AF7860AE
:104E880000BF0C37BD465DF8047B704780B483B023
:104E980000AF786000BF0C37BD465DF8047B7047F3
:104EA80080B400AF064BD3F88830054A43F470034A
:104EB800C2F8883000BFBD465DF8047B704700BF6C
:104EC80000ED00E080B586B000AF00220121104857
:104ED800FDF7F8FD00233B6000237B600023BB60E7
:104EE8000123FB6000233B6140F2FF737B613B467B
:104EF80019460748FDF776FB0346002B01D0FDF75E
:104F08006BF80348FDF7C8FB00BF1837BD4680BDE6
:104F18003000002080B58EB000AFF8607A603B604A
:104F28000B467B817B897B610023BB610023FB618E
:104F38003B683B6200237B620023BB620023FB6269
:104F480000233B6300237B630B48FDF7A9FD034661
:104F5800002B07D007F114037A6819460648FDF7B5
:104F680033FC05E00448FDF7BFFB0348FDF794FB5D
:104F780000BF3837BD4680BD3000002080B582B004
:104F880000AF786039607B68044A934201D100F031
:104F980063F800BF0837BD4680BD00BF3000002061
:104FA80080B58EB000AFF860B9607A6007F1100282
:104FB8007B684021F868FDF76BFC00BF3837BD46B9
:104FC80080BD000080B584B000AF78600B467B8060
:104FD80013467B707B78FB7307F10F0279880123F6
:104FE8000348FFF797FF00BF1037BD4680BD00BFDD
:104FF8003000002080B588B000AFF8600B4687ED20
:10500800010A7B81C0233B75D7ED017A9FED117AA8
:1050180067EE877AFDEEE77A17EE903AFB61FB6957
:10502800DBB27B75FB691B12DBB2BB75FB691B141A
:10503800DBB2FB75FB691B0EDBB23B7607F1140292
:1050480079890523F868FFF765FF00BF2037BD465B
:1050580080BD00BF00007A4480B588B000AF3A1D1B
:1050680007F10E0319464248FFF79AFF3B79C02B18
:1050780033D0C02B6DDCA22B4DD0A32B69D1BB79CB
:105088001BB21B021AB27B791BB213431BB27B8380
:105098007B8B07EE903AF8EEE77A9FED367A67EE6B
:1050A800877A354BC3ED007AFB791A463B7A1B02A7
:1050B8001A437B7A1B041A43BB7A1B0613437B6192
:1050C8007B6907EE903AF8EEE77A9FED2A7A67EE69
:1050D800877A294BC3ED017A3BE07B791A46BB7985
:1050E8001B021A43FB791B041A433B7A1B06134322
:1050F800FB61F869FCF70CFD19A3D3E90023FCF761
:105108008BFA02460B4610461946FCF71BFE03466F
:10511800194A93601DE07B791A46BB791B021A4332
:10512800FB791B041A433B7A1B0613433B6138691E
:10513800FCF7EEFC0CA3D3E90023FCF76DFA02465A
:105148000B4610461946FCF7FDFD03460A4AD36094
:10515800FFE700BF2037BD4680BD00BFAFF300802A
:10516800FCA9F1D24D62503F7B14AE47E17A843FEF
:10517800300000200000B43CE400002080B400AF00
:10518800024B1846BD465DF8047B7047E4000020DA
:105198000D488546FFF784FE0C480D490D4A00234B
:1051A80002E0D458C4500433C4188C42F9D30A4AD4
:1051B8000A4C002301E013600432A242FBD3FBF740
:1051C80059F8FCF72FFEFEE700000220000000203F
:1051D800100000200854000810000020FC000020E7
:1051E800FEE70000F8B500BFF8BC08BC9E46704753
:0C51F800F8B500BFF8BC08BC9E4670472C
:10520800FB21F93FFB2109407CD91240FB211940C1
:105218007A6A1F407CD92240BBFD2540FB212940EA
:105228003A462C407A6A2F405C4731407CD932405C
:105238009C6B3440BBFD3540DB8F3740FB21394048
:105248001BB43A403A463C405AD83D407A6A3F40FF
:105258004C7E40405C4741406C1042407CD9424003
:105268008CA243409C6B4440AC344540BBFD454058
:10527800CBC64640DB8F4740EB584840FB214940AE
:1052880083F9A200444E6E00FC291500D15727006F
:10529800DD34F50062DBC0003C9995004190430085
:1052A8006351FE00BBDEAB00B761C5003A6E240057
:1052B800D24D42004906E00009EA2E001C92D100B6
:1052C800EB1DFE0029B11C00E83EA700F535820061
:1052D80044BB2E009CE98400B4267000417E5F0028
:1052E800D6913900538339009CF439008B5F8400D0
:1052F80028F9BD00F81F3B00DEFF97000F98050056
:10530800112FEF000A5A8B006D1F6D00CF7E3600FB
:1053180009CB2700464FB7009E663F002DEA5F0085
:10532800BA277500E5EBC7003D7BF100F7390700A8
:1053380092528A00FB6BEA001FB15F00085D8D0086
:10534800300356007BFC4600F0AB6B0020BCCF005E
:1053580036F49A00E3A91D005E619100081BE6007F
:1053680085996500A0145F008D40680080D8FF0013
:1053780027734D0006063100CA561500C9A87300E8
:105388007BE260006B8CC00002000000030000009C
:10539800040000000600000000000040FB21F93F67
:1053A800000000002D44743E000000809846F83C40
:1053B8000000006051CC783B00000080831BF0396E
:1053C8000000004020257A38000000802282E33661
:1053D800000000001DF369350001020304050607FB
:1053E800080C1014182030400000000000000000D5
:0853F800010203040607080985
:04540000111E000871
:04540400ED1D000892
:105408009A99993E10000000010000000024F40061
:040000050800519905
:00000001FF
