:020000040800F2
:10000000000002209D330008690600087106000800
:100010007906000881060008890600080000000033
:100020000000000000000000000000009106000831
:100030009F06000800000000AD060008BB0600088F
:10004000ED330008ED330008ED330008ED33000810
:10005000ED330008ED330008ED330008ED33000800
:10006000ED330008ED330008ED330008ED330008F0
:10007000ED330008ED330008ED330008ED330008E0
:10008000ED330008ED330008ED330008ED330008D0
:10009000ED330008C9060008ED330008ED33000811
:1000A000ED330008ED330008ED330008ED330008B0
:1000B000ED330008ED330008ED330008ED330008A0
:1000C000ED330008ED330008ED330008ED33000890
:1000D000ED330008ED330008ED330008ED33000880
:1000E000ED330008ED330008ED330008ED33000870
:1000F000ED330008ED330008ED330008ED33000860
:10010000ED330008ED330008ED330008ED3300084F
:10011000ED330008ED330008DD060008ED3300087C
:10012000ED330008ED330008ED330008ED3300082F
:10013000ED330008ED330008ED330008ED3300081F
:10014000ED330008ED330008ED330008ED3300080F
:10015000ED330008ED330008ED330008ED330008FF
:10016000ED330008ED330008ED330008ED330008EF
:10017000ED330008ED330008ED330008ED330008DF
:10018000ED330008ED330008ED330008ED330008CF
:10019000ED33000800000000ED330008ED330008E7
:1001A000ED330008ED330008ED330008ED330008AF
:1001B000ED330008ED330008ED330008ED3300089F
:1001C000ED330008ED330008ED330008ED3300088F
:0801D000ED330008ED330008D7
:1001D800830730B547D0541E002A3ED0CAB2034622
:1001E80001E0013C39D303F8012B9D07F9D1032C19
:1001F8002CD9CDB205EB05250F2C05EB054535D9D6
:10020800A4F1100222F00F0C03F1100EE6444FEA9D
:10021800121C1A46156055609560D56010327245FB
:10022800F8D10CF1010214F00C0F03EB021204F0E8
:100238000F0C13D0ACF1040323F00303043313446D
:1002480042F8045B9A42FBD10CF003042CB1C9B20A
:100258001C4403F8011B9C42FBD130BD6446134685
:10026800002CF4D1F9E703461446C0E71A46A44621
:10027800E0E700BF70B50F4B0F4DAB42A3EB05068F
:1002880007D0B610002455F8043B01349847A6421D
:10029800F9D803F0A9F8094D094B5E1BAB424FEAA8
:1002A800A60606D0002455F8043B01349847A64218
:1002B800F9D870BD2834000828340008283400080C
:1002C8002C34000810B5054C237833B9044B13B10E
:1002D8000448AFF300800123237010BD0C000020F8
:1002E80000000000F033000808B5034B1BB10349B8
:1002F8000348AFF3008008BD000000001000002094
:10030800F033000880B500AF01F0D6F800F01AF815
:1003180000F070F800F09EF800F046F902F062FF75
:10032800A3220121064802F0D7FFA3220121044895
:1003380002F0D2FF642001F02FF900BFF5E700BFFB
:100348002800002080B594B000AF07F118033822C8
:1003580000211846FFF73CFF3B1D00221A605A6037
:100368009A60DA601A61002002F0FEF90123BB618D
:100378004FF48033FB6102237B630323BB630223B7
:10038800FB6355233B6402237B640223BB64022383
:10039800FB6407F11803184601F020F90346002B07
:1003A80001D000F019F80F237B600323BB60002302
:1003B800FB6000233B6100237B613B1D0421184641
:1003C80001F01EFC0346002B01D000F005F800BF29
:1003D8005037BD4680BD000080B500AF72B600BF83
:1003E8000321034800F0C4FB00BF00BF80BD00BF6D
:1003F8002800002080B485B000AF154BDB6C144A90
:1004080043F02003D364124BDB6C03F02003FB6042
:10041800FB680F4BDB6C0E4A43F00103D3640C4BB3
:10042800DB6C03F00103BB60BB68094BDB6C084A5B
:1004380043F00203D364064BDB6C03F002037B60DA
:100448007B6800BF1437BD465DF8047B704700BF6A
:100458000010024080B500AF1F4B204A1A601E4BA7
:1004680000225A601C4B00229A601B4B0022DA6063
:10047800194B00221A74184B00225A74164B00228A
:100488009A74154B11225A61134B01229A61124B2F
:100498000522DA61104B04221A620F4B11225A62AC
:1004A8000D4B01229A620C4B0522DA620A4B042298
:1004B8001A63094B08225A63074B00229A63064BBA
:1004C8000022DA63044800F033F90346002B01D018
:1004D800FFF782FF00BF80BD2800002000640040B5
:1004E80080B59EB000AF786007F1640300221A60FF
:1004F8005A609A60DA601A6107F1100354220021E9
:100508001846FFF765FE7B681B68244A934240D172
:100518004FF480533B614FF00073BB6407F1100345
:10052800184601F051FD0346002B01D0FFF754FF98
:100538001B4B9B6D1A4A43F000739365184B9B6DD8
:1005480003F00073FB60FB68154BDB6C144A43F047
:100558000203D364124BDB6C03F00203BB60BB687D
:100568004FF440737B660223BB660023FB660023BF
:100578003B6709237B6707F164031946094801F0C3
:1005880071FF00220021152002F07DFA152002F0EB
:1005980094FA00BF7837BD4680BD00BF00640040B4
:1005A800001002400004004880B584B000AF3B1D35
:1005B80000221A605A609A60144B154A1A60134B4D
:1005C8009F225A60114B00229A60104B6322DA6016
:1005D8000E4B00229A610D4802F089FA0346002B5F
:1005E80001D0FFF7F9FE00237B600023FB603B1D71
:1005F8001946064802F008FD0346002B01D0FFF714
:10060800EBFE00BF1037BD4680BD00BF8C00002048
:100618000010004080B584B000AF78607B681B682C
:100628000D4A934213D10D4B9B6D0C4A43F01003B6
:1006380093650A4B9B6D03F01003FB60FB68002277
:100648000021362002F01FFA362002F036FA00BFE9
:100658001037BD4680BD00BF0010004000100240AA
:1006680080B400AF00BFFDE780B400AF00BFFDE776
:1006780080B400AF00BFFDE780B400AF00BFFDE766
:1006880080B400AF00BFFDE780B400AF00BFBD4637
:100698005DF8047B704780B400AF00BFBD465DF8CD
:1006A800047B704780B400AF00BFBD465DF8047B93
:1006B800704780B500AF00F051FF00BF80BD00005B
:1006C80080B500AF024800F073FC00BF80BD00BFDA
:1006D8002800002080B500AF024802F05FFA00BF92
:1006E80080BD00BF8C00002080B582B000AF0F4BEA
:1006F8001B6E0E4A43F0010313660C4B1B6E03F08E
:1007080001037B607B68094B9B6D084A43F080536B
:100718009365064B9B6D03F080533B603B6802F08A
:10072800C7F800BF0837BD4680BD00BF00100240B3
:1007380080B584B000AF78607B68002B01D10123BD
:1007480047E17B6893F85C30DBB2002B06D17B680D
:10075800002283F85D207868FFF7C2FE7B681B687B
:100768009A697B681B6822F010029A6100F008FF02
:10077800F86012E000F004FF0246FB68D31A0A2B67
:100788000BD97B681B6E43F001027B681A667B6895
:10079800032283F85C2001231BE17B681B689B69AB
:1007A80003F00803082BE5D07B681B689A697B680F
:1007B8001B6842F001029A6100F0E2FEF86012E064
:1007C80000F0DEFE0246FB68D31A0A2B0BD97B68C1
:1007D8001B6E43F001027B681A667B68032283F86C
:1007E8005C200123F5E07B681B689B6903F001032B
:1007F800002BE5D07B681B689A697B681B6842F010
:1008080002029A617B681B68744A934203D1744A56
:100818007B685B6813607B681B7C012B08D17B6855
:100828001B689A697B681B6822F040029A6107E09E
:100838007B681B689A697B681B6842F040029A6172
:100848007B685B7C012B08D17B681B689A697B6895
:100858001B6842F480429A6107E07B681B689A69CA
:100868007B681B6822F480429A617B689B7C012B21
:1008780008D17B681B689A697B681B6822F48052E0
:100888009A6107E07B681B689A697B681B6842F479
:1008980080529A617B681B689B6923F440717B686E
:1008A8009A687B681B680A439A617B681B689A6927
:1008B8007B681B6822F0A4029A617B681B681A692E
:1008C8007B681B6822F010021A617B68DB68012BC9
:1008D80008D17B681B689A697B681B6842F0040230
:1008E8009A612CE07B68DB68002B28D07B68DB688A
:1008F800022B1CD07B681B689A697B681B6842F0D6
:1009080080029A617B681B681A697B681B6842F0E1
:1009180010021A617B68DB68032B10D17B681B68A7
:100928009A697B681B6842F020029A6107E07B683D
:100938001B689A697B681B6842F020029A617B6891
:100948009B69013B5A067B68DB69013B1B021A4322
:100958007B681B6A013B42EA03017B685B69013BD8
:100968001A047B681B680A43DA617B689B68B3F5E5
:10097800407F15D17B689B6A5A1E7B68DB6A013B06
:100988001B021A437B681B6B013B1B0142EA0301F4
:100998007B685B6A013B1A047B681B680A43DA6060
:1009A8007B681B68D3F8C0107B68DA6B7B681B68B0
:1009B8000A43C3F8C020786800F096FC7B680022E0
:1009C8009A657B6800221A667B68012283F85C209E
:1009D800002318461037BD4680BD00BF00640040A4
:1009E8000065004080B487B000AF786039607B68EC
:1009F80093F85C30FB75FB7D012B02D0FB7D022B4D
:100A08003DD13B681B68002B19D13B689B689A074E
:100A18003B68DB68DB061A433B681B691B041A4307
:100A28003B685B6913433B617B681A6C3B685B6896
:100A38009B001344BB60BB683A691A601DE03B68C1
:100A4800DB685A073B681B6913433B613B689B683B
:100A58009A073B685B691343FB607B685A6C3B6889
:100A68005B68DB001344BB60BB683A691A60BB680B
:100A78000433BB60BB68FA681A60002306E07B6831
:100A88001B6E43F002027B681A66012318461C3766
:100A9800BD465DF8047B704780B483B000AF7860D2
:100AA8007B6893F85C30DBB2012B10D17B680222A3
:100AB80083F85C207B681B689A697B681B6822F056
:100AC80001029A617B6800221A66002306E07B68AF
:100AD8001B6E43F004027B681A66012318460C3724
:100AE800BD465DF8047B704780B586B000AFF860FE
:100AF800B9607A60FB6893F85C30DBB2022B2CD1CA
:100B0800FB681B68D3F8C43003F40013002B07D02C
:100B1800FB681B6E43F40072FB681A66012323E02E
:100B2800FB681B68D3F8C4301B0C03F003037B611C
:100B38007B697A68B968F86800F042FCFB681B6852
:100B480001217A6901FA02F2C3F8CC2001227B69FB
:100B58009A40FB689A65002306E0FB681B6E43F029
:100B68000802FB681A66012318461837BD4680BD7F
:100B780080B483B000AF786039607B6893F85C30EC
:100B8800DBB2022B06D17B681B683A68C3F8D02019
:100B9800002306E07B681B6E43F008027B681A6638
:100BA800012318460C37BD465DF8047B70470000EA
:100BB80080B48BB000AFF860B9607A603B60002306
:100BC800FB61FB6893F85C30FB76FB7E022B40F000
:100BD800E880BB68402B37D1FB681B68D3F890309E
:100BE80003F00F03002B07D1FB681B6E43F48072E0
:100BF800FB681A660123DBE0FB681B68D3F89030BA
:100C080003F08073B3F1807F0AD1FB681B68D3F8C7
:100C1800803003F40073B3F5007F01D10123FB6139
:100C2800FB681B68D3F890301B0A03F00303FA69CA
:100C38001344FB61FB68996CFA691346DB001344A3
:100C4800DB000B447B6236E0FB681B68D3F8983006
:100C580003F00F03002B07D1FB681B6E43F480726F
:100C6800FB681A660123A3E0FB681B68D3F8983079
:100C780003F08073B3F1807F0AD1FB681B68D3F857
:100C8800803003F48073B3F5807F01D10123FB61C9
:100C9800FB681B68D3F898301B0A03F00303FA6952
:100CA8001344FB61FB68D96CFA691346DB001344F3
:100CB800DB000B447B627B6A1B6803F080427B6825
:100CC8005A607B685B68002B07D17B6A1B689B0CAA
:100CD800C3F30A027B681A6005E07B6A1B6823F08D
:100CE80060427B681A607B6A1B6803F000527B686D
:100CF8009A607B6A1B6803F000427B681A617B6A12
:100D080004337B627B6A1B689AB27B68DA617B6A10
:100D18001B681B0C03F00F027B68DA607B6A1B6898
:100D280003F480127B685A617B6A1B6803F4001223
:100D38007B689A617B6A1B681B0E03F07F027B68E5
:100D48001A627B6A1B68DA0F7B685A627B6A043313
:100D58007B627B6A7B6100233B620AE07A693B6ABB
:100D68001A4439683B6A0B4412781A703B6A01339B
:100D78003B627B68DB68114AD35C1A463B6A934244
:100D8800ECD3BB68402B05D1FB681B68FA69C3F834
:100D9800942004E0FB681B68FA69C3F89C200023D0
:100DA80006E0FB681B6E43F00802FB681A66012325
:100DB80018462C37BD465DF8047B70470834000898
:100DC80080B485B000AF78607B681B68D3F8C43006
:100DD80003F00703FB60FB6818461437BD465DF84F
:100DE800047B704780B487B000AFF860B9607A6060
:100DF800FB6893F85C30FB75FB7D012B03D0FB7D12
:100E0800022B40F0C880FB681B689B6D3B61BB6888
:100E180003F00703002B04D03B6903F00103002B08
:100E28003BD0BB6803F03803002B04D03B6903F0C8
:100E38000203002B31D0BB6803F4E073002B04D00D
:100E48003B6903F00403002B27D0BB6803F4F0537D
:100E5800002B04D03B6903F00803002B1DD0BB68AE
:100E680003F46043002B04D03B6903F01003002B0C
:100E780013D0BB6803F44033002B04D03B6903F064
:100E88002003002B09D0BB6803F47C03002B0CD093
:100E98003B6903F04003002B07D1FB681B68DA6D40
:100EA800FB681B6842F00102DA65BB6803F00703C0
:100EB800002B04D03B6903F00103002B3BD1BB6836
:100EC80003F03803002B04D03B6903F00203002B26
:100ED80031D1BB6803F4E073002B04D03B6903F005
:100EE8000403002B27D1BB6803F4F053002B04D074
:100EF8003B6903F00803002B1DD1BB6803F4604372
:100F0800002B04D03B6903F01003002B13D1BB68FE
:100F180003F44033002B04D03B6903F02003002B7B
:100F280009D1BB6803F47C03002B0CD03B6903F0A8
:100F38004003002B07D0FB681B68DA6DFB681B6851
:100F480042F00202DA65BB6803F08003002B09D087
:100F5800FB681B68D3F8DC10FB681B687A680A43D7
:100F6800C3F8DC20BB6803F48073002B09D0FB684E
:100F78001B68D3F8E010FB681B687A680A43C3F85B
:100F8800E020FB681B68596DFB681B68BA680A4358
:100F98005A65002306E0FB681B6E43F00202FB68FB
:100FA8001A66012318461C37BD465DF8047B704756
:100FB80080B58CB000AF78607B681B681B6D03F44C
:100FC800E053FB627B681B685B6DFA6A1340FB6247
:100FD8007B681B681B6D03F00703BB627B681B689B
:100FE8005B6DBA6A1340BB627B681B681B6D03F0BC
:100FF80038037B627B681B685B6D7A6A13407B628F
:101008007B681B681B6D03F471033B627B681B687C
:101018005B6D3A6A13403B627B681B681B6D03F487
:101028006023FB617B681B685B6DFA691340FB6199
:101038007B681B685B6DBB617B681B681B6D7B6194
:101048007B699B0903F00103002B0CD0BB699B094A
:1010580003F00103002B06D07B681B6840221A6549
:10106800786800F022F97B691B0A03F00103002B62
:101078001AD0BB691B0A03F00103002B14D07B684C
:101088001B68D3F8D8303B617B681B68D3F8E03025
:101098003A6913403B617B681B684FF480721A659C
:1010A8003969786800F0E2F8FB6A002B07D07B68A2
:1010B8001B68FA6A1A65F96A786800F0ACF8BB6AC6
:1010C800002B07D07B681B68BA6A1A65B96A78680A
:1010D80002F0DEF87B6A002B07D07B681B687A6A0F
:1010E8001A65796A786800F0A1F87B695B0A03F0F1
:1010F8000103002B0DD0BB695B0A03F00103002B31
:1011080007D07B681B684FF400721A65786800F096
:1011180098F87B69DB0903F00103002B19D0BB6940
:10112800DB0903F00103002B13D07B681B68D3F89D
:10113800D430FB607B681B68D3F8DC30FA68134056
:10114800FB607B681B6880221A65F968786800F084
:1011580082F87B695B0B03F00103002B0DD0BB69A0
:101168005B0B03F00103002B07D07B681B684FF46F
:1011780000521A65786800F084F87B69DB0B03F08D
:101188000103002B0DD0BB69DB0B03F00103002B1F
:1011980007D07B681B684FF400421A65786800F036
:1011A8007AF87B699B0B03F00103002B10D0BB6915
:1011B8009B0B03F00103002B0AD07B681B684FF4DC
:1011C80080421A657B681B6E43F080027B681A6652
:1011D800FB69002B07D07B681B68FA691A65F969F7
:1011E800786800F076F83B6A002B09D07B681B68AA
:1011F8003A6A1A657B681A6E3B6A1A437B681A66F4
:101208007B681B6E002B02D0786800F058F800BF8E
:101218003037BD4680BD80B483B000AF7860396098
:1012280000BF0C37BD465DF8047B704780B483B0BF
:1012380000AF7860396000BF0C37BD465DF8047BAD
:10124800704780B483B000AF786000BF0C37BD46EC
:101258005DF8047B704780B483B000AF7860396074
:1012680000BF0C37BD465DF8047B704780B483B07F
:1012780000AF7860396000BF0C37BD465DF8047B6D
:10128800704780B483B000AF786000BF0C37BD46AC
:101298005DF8047B704780B483B000AF786000BF0E
:1012A8000C37BD465DF8047B704780B483B000AF4F
:1012B800786000BF0C37BD465DF8047B704780B48A
:1012C80083B000AF786000BF0C37BD465DF8047B83
:1012D800704780B483B000AF7860396000BF0C37C6
:1012E800BD465DF8047B704780B485B000AF786078
:1012F800304BBB607B681B682F4A934203D1BB68A5
:1013080003F55473BB607B681B682C4A934203D176
:10131800BB6803F5D463BB607B68BA681A647B68F2
:101328001B68D3F8803023F4F8117B685B6B1A04D0
:101338007B681B680A43C3F88020BB6803F170020E
:101348007B685A647B681B68D3F8803023F070612F
:101358007B689B6B1A067B681B680A43C3F880206E
:10136800BB6803F1B0027B689A64BB6803F5C4727A
:101378007B68DA64BB6803F518727B681A65BB681A
:1013880003F51E727B685A65BB68FB6005E0FB6865
:1013980000221A60FB680433FB60BB6803F55473D2
:1013A800FA689A42F3D300BF00BF1437BD465DF810
:1013B800047B704700A4004000680040006C0040B7
:1013C80080B489B000AFF860B9607A603B60BB68F0
:1013D8005B68002B0AD1BB681A69BB689B681A4313
:1013E800BB681B689B041343FB610AE0BB681A696E
:1013F800BB689B681A43BB681B68134343F0804370
:10140800FB61BB681B6A1A06BB68DB691A43BB68C9
:101418009B691A43BB685B691A43BB68DB681B049A
:1014280013433B61FB68596D3A681346DB0013446C
:10143800DB000B44BB61BB69FA691A60BB69043302
:10144800BB61BB693A691A60BB690433BB6100239D
:101458007B6120E07B6903337A6813441B781A06A2
:101468007B69023379680B441B781B041A437B6938
:10147800013379680B441B781B02134379687A6936
:101488000A4412781A43BB691A60BB690433BB610A
:101498007B6904337B61BB68DB68064AD35C1A4608
:1014A8007B699342D6D300BF00BF2437BD465DF8A1
:1014B800047B70470834000880B582B000AF002371
:1014C800FB71032001F0D4FA0F2000F00DF8034659
:1014D800002B02D00123FB7101E0FFF705F9FB792E
:1014E80018460837BD4680BD80B584B000AF786027
:1014F8000023FB73164B1B68002B22D0154B1A6870
:10150800134B1B684FF47A71B1FBF3F3B2FBF3F39F
:10151800184601F0E0FA0346002B0FD17B680F2B29
:1015280009D8002279684FF0FF3001F0ACFA0A4A76
:101538007B68136007E00123FB7304E00123FB735E
:1015480001E00123FB73FB7B18461037BD4680BDC5
:1015580004000020080000200000002080B400AF34
:10156800054B1A68054B1B681344034A136000BFF8
:10157800BD465DF8047B7047D800002004000020B9
:1015880080B400AF034B1B681846BD465DF8047B6A
:10159800704700BFD800002080B584B000AF7860E5
:1015A800FFF7EEFFB8607B68FB60FB68B3F1FF3FB5
:1015B80004D0094B1B68FA681344FB6000BFFFF7AF
:1015C800DFFF0246BB68D31AFA689A42F7D800BF11
:1015D80000BF1037BD4680BD0400002080B588B02C
:1015E80000AF78607B68002B01D10123FEE27B68A5
:1015F8001B6803F00103002B75D0974B9B6803F021
:101608000C03BB61944BDB6803F003037B61BB698C
:101618000C2B02D17B69032B02D0BB69082B0BD1A1
:101628008D4B1B6803F40033002B5BD07B685B6831
:10163800002B57D10123D9E27B685B68B3F5803F63
:1016480006D1854B1B68844A43F4803313601DE040
:101658007B685B68B3F5A02F0CD17F4B1B687E4A73
:1016680043F4802313607C4B1B687B4A43F480332C
:1016780013600BE0784B1B68774A23F480331360C0
:10168800754B1B68744A23F4802313607B685B687E
:10169800002B13D0FFF774FF386108E0FFF770FFE5
:1016A80002463B69D31A642B01D903239EE26A4B95
:1016B8001B6803F40033002BF0D014E0FFF760FF41
:1016C800386108E0FFF75CFF02463B69D31A642BD8
:1016D80001D903238AE2604B1B6803F40033002B13
:1016E800F0D100E000BF7B681B6803F00203002B09
:1016F80075D0594B9B6803F00C03BB61564BDB68F4
:1017080003F003037B61BB690C2B02D17B69022BBD
:1017180002D0BB69042B1FD14F4B1B6803F48063B5
:10172800002B05D07B68DB68002B01D101235DE22B
:10173800494B5B6823F0FE427B681B691B064649E0
:1017480013434B60454B1B681846FFF7CDFE034615
:10175800002B43D0012349E27B68DB68002B23D0B0
:101768003D4B1B683C4A43F480731360FFF708FF46
:10177800386108E0FFF704FF02463B69D31A022BE1
:1017880001D9032332E2344B1B6803F48063002B36
:10179800F0D0314B5B6823F0FE427B681B691B0667
:1017A8002D4913434B601AE02B4B1B682A4A23F43C
:1017B80080731360FFF7E4FE386108E0FFF7E0FE8E
:1017C80002463B69D31A022B01D903230EE2224BAE
:1017D8001B6803F48063002BF0D100E000BF7B6836
:1017E8001B6803F00803002B41D07B685B69002B62
:1017F8001CD0194BD3F89430174A43F00103C2F8B0
:101808009430FFF7BDFE386108E0FFF7B9FE0246E5
:101818003B69D31A022B01D90323E7E10E4BD3F816
:10182800943003F00203002BEFD020E00A4BD3F8EA
:101838009430094A23F00103C2F89430FFF7A0FE60
:1018480038610DE0FFF79CFE02463B69D31A022B74
:1018580006D90323CAE100BF00100240000000209F
:101868008C4BD3F8943003F00203002BEAD17B6849
:101878001B6803F00403002B00F0A6800023FB770D
:10188800844B9B6D03F08053002B01D1012300E0B2
:101898000023002B0DD07F4B9B6D7E4A43F0805375
:1018A80093657C4B9B6D03F08053FB60FB680123C1
:1018B800FB77794B1B6803F48073002B18D1764BA8
:1018C8001B68754A43F480731360FFF759FE38614B
:1018D80008E0FFF755FE02463B69D31A022B01D9EF
:1018E800032383E16C4B1B6803F48073002BF0D057
:1018F8007B689B68012B08D1664BD3F89030654A0A
:1019080043F00103C2F8903024E07B689B68052B04
:1019180010D1604BD3F890305E4A43F00403C2F80C
:1019280090305C4BD3F890305A4A43F00103C2F828
:1019380090300FE0574BD3F89030564A23F001030C
:10194800C2F89030534BD3F89030524A23F0040336
:10195800C2F890307B689B68002B16D0FFF710FE0A
:1019680038610AE0FFF70CFE02463B69D31A41F2E0
:101978008832934201D9032338E1464BD3F890309B
:1019880003F00203002BEDD015E0FFF7F9FD3861F5
:101998000AE0FFF7F5FD02463B69D31A41F28832A7
:1019A800934201D9032321E13A4BD3F8903003F055
:1019B8000203002BEDD1FB7F012B05D1354B9B6D2D
:1019C800344A23F0805393657B681B6803F0200337
:1019D800002B3CD07B689B69002B1CD02D4BD3F887
:1019E80098302C4A43F00103C2F89830FFF7C8FD3D
:1019F800386108E0FFF7C4FD02463B69D31A022BA1
:101A080001D90323F2E0234BD3F8983003F0020303
:101A1800002BEFD01BE01F4BD3F898301D4A23F062
:101A28000103C2F89830FFF7ABFD386108E0FFF713
:101A3800A7FD02463B69D31A022B01D90323D5E03F
:101A4800144BD3F8983003F00203002BEFD17B68D6
:101A5800DB69002B00F0C9800E4B9B6803F00C0378
:101A68000C2B00F083807B68DB69022B5ED1094B6D
:101A78001B68084A23F080731360FFF781FD386103
:101A88000CE0FFF77DFD02463B69D31A022B05D90E
:101A98000323ABE00010024000700040554B1B6868
:101AA80003F00073002BECD1524BDA68524B134011
:101AB8007A68116A7A68526A013A120111437A689F
:101AC800926A120211437A68126B5208013A52055F
:101AD80011437A68526B5208013A520611437A68E8
:101AE800D26AD2060A4343491343CB60414B1B6871
:101AF800404A43F0807313603E4BDB683D4A43F035
:101B08008073D360FFF73CFD386108E0FFF738FDCC
:101B180002463B69D31A022B01D9032366E0354BF1
:101B28001B6803F00073002BF0D05EE0314B1B689C
:101B3800304A23F080731360FFF722FD386108E014
:101B4800FFF71EFD02463B69D31A022B01D9032376
:101B58004CE0284B1B6803F00073002BF0D1254B99
:101B6800DA682449254B1340CB603EE07B68DB698B
:101B7800012B01D1012339E01E4BDB687B617B69B6
:101B880003F003027B681B6A9A422CD17B6903F03D
:101B9800F0027B685B6A013B1B019A4223D17B6997
:101BA80003F4FE427B689B6A1B029A421BD17B6945
:101BB80003F078427B68DB6ADB069A4213D17B69C3
:101BC80003F4C0027B681B6B5B08013B5B059A4210
:101BD80009D17B6903F0C0627B685B6B5B08013BE2
:101BE8005B069A4201D0012300E000231846203703
:101BF800BD4680BD001002400C809F01FCFFEEFE38
:101C080080B586B000AF7860396000237B617B685F
:101C1800002B01D101231EE1914B1B6803F00F0338
:101C28003A689A4210D98E4B1B6823F00F028C49F0
:101C38003B6813430B608A4B1B6803F00F033A6839
:101C48009A4201D0012306E17B681B6803F0010377
:101C5800002B73D07B685B68032B29D1814B1B68F1
:101C680003F00073002B01D10123F4E000F066F9C2
:101C780038613B697C4A93423FD97A4B9B6803F0B1
:101C8800F003002B09D07B681B6803F00203002BCC
:101C980033D07B689B68002B2FD1724B9B6823F055
:101CA800F003704A43F08003936080237B6124E053
:101CB8007B685B68022B07D16A4B1B6803F400330F
:101CC800002B09D10123C6E0664B1B6803F480632F
:101CD800002B01D10123BEE000F0CEF838613B694A
:101CE800614A934209D95F4B9B6823F0F0035D4A30
:101CF80043F08003936080237B615A4B9B6823F0F9
:101D080003027B685B68574913438B60FFF738FC15
:101D1800F8600AE0FFF734FC0246FB68D31A41F288
:101D28008832934201D9032395E04E4B9B6803F018
:101D38000C027B685B689B009A42EBD17B681B684E
:101D480003F00203002B23D07B681B6803F0040315
:101D5800002B05D0434B9B68424A43F4E0639360F1
:101D68007B681B6803F00803002B07D03D4B9B687A
:101D780023F47C533B4A43F4E0639360394B9B68FC
:101D880023F0F0027B689B68364913438B6008E0B8
:101D98007B69802B05D1334B9B68324A23F0F003D3
:101DA80093602F4B1B6803F00F033A689A421DD2C9
:101DB8002B4B1B6823F00F0229493B6813430B6028
:101DC800FFF7DEFBF8600AE0FFF7DAFB0246FB6884
:101DD800D31A41F28832934201D903233BE0204BC6
:101DE8001B6803F00F033A689A42EDD17B681B68C1
:101DF80003F00403002B08D01A4B9B6823F4E0621D
:101E08007B68DB68174913438B607B681B6803F0AA
:101E18000803002B09D0134B9B6823F460527B689E
:101E28001B69DB000F4913438B6000F025F802465D
:101E38000C4B9B681B0903F00F030C49CB5C03F0A8
:101E48001F0322FA03F30A4A13600A4B1B68184659
:101E5800FFF74AFB034618461837BD4680BD00BF4A
:101E6800002002400010024000B4C40418340008E6
:101E7800080000200000002080B487B000AF2C4B81
:101E88009B6803F00C03042B02D12A4B3B6147E00B
:101E9800274B9B6803F00C03082B02D1264B3B61B0
:101EA8003EE0234B9B6803F00C030C2B36D1204BF0
:101EB800DB6803F00303FB601D4BDB681B0903F0C1
:101EC8000F030133BB60FB68032B0CD11A4ABB68B4
:101ED800B2FBF3F3164AD268120A02F07F0202FB41
:101EE80003F37B610CE0134ABB68B2FBF3F3104ABF
:101EF800D268120A02F07F0202FB03F37B6100BF83
:101F08000B4BDB685B0E03F0030301335B007B6064
:101F18007A697B68B2FBF3F33B6101E000233B6124
:101F28003B6918461C37BD465DF8047B704700BF07
:101F3800001002400024F40000127A0080B487B038
:101F480000AF1E4BDB6803F003033B611B4BDB68F0
:101F58001B0903F00F030133FB603B69032B0CD112
:101F6800174AFB68B2FBF3F3144AD268120A02F06C
:101F78007F0202FB03F37B610CE0124AFB68B2FBB1
:101F8800F3F30E4AD268120A02F07F0202FB03F34F
:101F98007B6100BF094BDB685B0E03F00303013371
:101FA8005B00BB607A69BB68B2FBF3F37B607B685C
:101FB80018461C37BD465DF8047B70470010024088
:101FC80000127A000024F40080B586B000AF786073
:101FD8000023FB740023BB747B681B6803F4002395
:101FE800002B00F0988000237B74434B9B6D03F01B
:101FF8008053002B0DD1404B9B6D3F4A43F08053DB
:1020080093653D4B9B6D03F08053BB60BB68012318
:102018007B743A4B1B68394A43F480731360FFF7AB
:10202800AFFAF86009E0FFF7ABFA0246FB68D31A8B
:10203800022B02D90323FB7405E0304B1B6803F421
:102048008073002BEFD0FB7C002B59D12A4BD3F89F
:10205800903003F440737B617B69002B1ED07B6852
:102068001B6D7A699A4219D0234BD3F8903023F428
:1020780040737B61204BD3F890301F4A43F4803380
:10208800C2F890301C4BD3F890301B4A23F48033AD
:10209800C2F89030184A7B69C2F890307B6903F027
:1020A8000103002B16D0FFF76BFAF8600BE0FFF77F
:1020B80067FA0246FB68D31A41F28832934202D982
:1020C8000323FB7406E00C4BD3F8903003F00203B3
:1020D800002BECD0FB7C002B0BD1074BD3F89030B6
:1020E80023F440727B681B6D03491343C1F8903099
:1020F80008E0FB7CBB7405E0001002400070004063
:10210800FB7CBB747B7C012B05D1A74B9B6DA64A3E
:1021180023F0805393657B681B6803F00103002B51
:102128000AD0A14BD3F8883023F003027B685B68A0
:102138009D491343C1F888307B681B6803F002038C
:10214800002B0AD0984BD3F8883023F00C027B6818
:102158009B6895491343C1F888307B681B6803F076
:102168000403002B0AD0904BD3F8883023F03002B8
:102178007B68DB688C491343C1F888307B681B682F
:1021880003F00803002B0AD0874BD3F8883023F0DC
:10219800C0027B681B6984491343C1F888307B6897
:1021A8001B6803F01003002B0AD07F4BD3F888304C
:1021B80023F440727B685B697B491343C1F888301C
:1021C8007B681B6803F02003002B0AD0764BD3F8FA
:1021D800883023F440627B689B6973491343C1F8D4
:1021E80088307B681B6803F04003002B0AD06E4BD5
:1021F800D3F8883023F440527B68DB696A4913437B
:10220800C1F888307B681B6803F08003002B0AD074
:10221800654BD3F8883023F440427B681B6A6249D7
:102228001343C1F888307B681B6803F48073002B64
:102238000AD05D4BD3F8883023F440327B685B6A60
:1022480059491343C1F888307B681B6803F400338D
:10225800002B0AD0544BD3F89C3023F003027B6840
:102268009B6A51491343C1F89C307B681B6803F48F
:102278000073002B0AD04C4BD3F8883023F440224B
:102288007B68DB6A48491343C1F888307B681B6860
:1022980003F48063002B15D0434BD3F8883023F424
:1022A80040127B681B6B40491343C1F888307B6838
:1022B8001B6BB3F5801F05D13B4BDB683A4A43F4EF
:1022C8008013D3607B681B6803F40063002B15D070
:1022D800354BD3F8883023F440027B685B6B324976
:1022E8001343C1F888307B685B6BB3F5800F05D169
:1022F8002D4BDB682C4A43F48013D3607B681B6842
:1023080003F48053002B15D0274BD3F8883023F0E3
:1023180040727B689B6B24491343C1F888307B6803
:102328009B6BB3F1807F05D11F4BDB681E4A43F4DA
:102338008013D3607B681B6803F40053002B15D00F
:10234800194BD3F8883023F040627B68DB6B164961
:102358001343C1F888307B68DB6BB3F1006F05D19C
:10236800114BDB68104A43F48013D3607B681B6809
:1023780003F48043002B19D00B4BD3F8883023F09B
:1023880040627B681B6C08491343C1F888307B683E
:102398001B6CB3F1006F09D1034BDB68024A43F4AD
:1023A8008013D36002E000BF001002407B681B6806
:1023B80003F40043002B15D0294BD3F8883023F0C1
:1023C80040527B685B6C26491343C1F888307B68B0
:1023D8005B6CB3F1805F05D1214BDB68204A43F485
:1023E8008033D3607B681B6803F48033002B15D0DF
:1023F8001B4BD3F8883023F040427B689B6C18490C
:102408001343C1F888307B689B6CB3F1804F05D1CA
:10241800134BDB68124A43F48033D3607B681B6834
:1024280003F48023002B15D00D4BD3F89C3023F4F4
:1024380040127B68DB6C0A491343C1F89C307B6807
:10244800DB6CB3F5001F05D1054BDB68044A43F488
:102458008013D360BB7C18461837BD4680BD00BFCB
:102468000010024080B487B000AF78603960002364
:102478007B615AE13B681A6801217B6901FA03F321
:102488001340FB60FB68002B00F04C813B685B68E5
:1024980003F00303012B05D03B685B6803F00303DB
:1024A800022B30D17B689B683B617B695B00032210
:1024B80002FA03F3DB433A6913403B613B68DA688D
:1024C8007B695B0002FA03F33A6913433B617B685B
:1024D8003A699A607B685B683B6101227B6902FA12
:1024E80003F3DB433A6913403B613B685B681B09B4
:1024F80003F001027B6902FA03F33A6913433B6173
:102508007B683A695A603B685B6803F00303032BF6
:1025180017D07B68DB683B617B695B00032202FAAA
:1025280003F3DB433A6913403B613B689A687B6974
:102538005B0002FA03F33A6913433B617B683A692B
:10254800DA603B685B6803F00303022B23D17B69E5
:10255800DA087B68083253F822303B617B6903F064
:1025680007039B000F2202FA03F3DB433A69134087
:102578003B613B681A697B6903F007039B0002FA19
:1025880003F33A6913433B617B69DA087B680832D5
:10259800396943F822107B681B683B617B695B00E3
:1025A800032202FA03F3DB433A6913403B613B68B9
:1025B8005B6803F003027B695B0002FA03F33A6984
:1025C80013433B617B683A691A603B685B6803F4B4
:1025D8004033002B00F0A6805B4B1B6E5A4A43F039
:1025E80001031366584B1B6E03F00103BB60BB6805
:1025F800564A7B699B08023352F823303B617B695A
:1026080003F003039B000F2202FA03F3DB433A694A
:1026180013403B617B68B3F1904F1FD07B684C4AF5
:10262800934219D07B684B4A934213D07B684A4A3D
:1026380093420DD07B68494A934207D07B68484A49
:10264800934201D105230AE0062308E0042306E0AB
:10265800032304E0022302E0012300E000237A6957
:1026680002F00302920093403A6913433B613749F1
:102678007B699B0802333A6941F82320394B9B68F0
:102688003B61FB68DB433A6913403B613B685B682D
:1026980003F48013002B03D03A69FB6813433B61B2
:1026A800304A3B6993602F4BDB683B61FB68DB4337
:1026B8003A6913403B613B685B6803F40013002BE5
:1026C80003D03A69FB6813433B61264A3B69D360F0
:1026D800244B5B683B61FB68DB433A6913403B6111
:1026E8003B685B6803F40033002B03D03A69FB684E
:1026F80013433B611B4A3B6953601A4B1B683B61A0
:10270800FB68DB433A6913403B613B685B6803F451
:102718008033002B03D03A69FB6813433B61114AAD
:102728003B6913607B6901337B613B681A687B698D
:1027380022FA03F3002B7FF49DAE00BF00BF1C37C5
:10274800BD465DF8047B7047001002400000014060
:102758000004004800080048000C00480010004829
:10276800001400480004014080B485B000AF7860D0
:102778007B68002B41D14B4B1B6803F4C063B3F556
:10278800806F31D1474BD3F88030464A23F48073A9
:10279800C2F88030434B1B6823F4C063414A43F4BA
:1027A80000731360404B1B68322202FB03F33F4A5D
:1027B800A2FB03239B0C0133FB6002E0FB68013B97
:1027C800FB60384B5B6903F48063B3F5806F02D11B
:1027D800FB68002BF2D1334B5B6903F48063B3F5DC
:1027E800806F58D1032357E02E4BD3F880302D4A01
:1027F80023F48073C2F880304DE07B68B3F5007F26
:1028080041D1284B1B6803F4C063B3F5806F31D105
:10281800244BD3F88030234A43F48073C2F88030C5
:10282800204B1B6823F4C0631E4A43F400731360F3
:102838001D4B1B68322202FB03F31C4AA2FB032335
:102848009B0C0133FB6002E0FB68013BFB60154B0E
:102858005B6903F48063B3F5806F02D1FB68002BDA
:10286800F2D1104B5B6903F48063B3F5806F12D12A
:10287800032311E00B4BD3F880300A4A43F48073EA
:10288800C2F8803007E0074B1B6823F4C063054A91
:1028980043F480631360002318461437BD465DF87F
:1028A800047B7047007000400800002083DE1B4353
:1028B80080B400AF054B9B68044A43F4804393609F
:1028C80000BFBD465DF8047B704700BF0070004044
:1028D80080B485B000AF78607B6803F00703FB60C5
:1028E8000C4BDB68BB60BA684FF6FF031340BB6054
:1028F800FB681A02BB68134343F0BF6343F4003319
:10290800BB60044ABB68D36000BF1437BD465DF89E
:10291800047B704700ED00E080B400AF044BDB6837
:102928001B0A03F007031846BD465DF8047B704791
:1029380000ED00E080B483B000AF0346FB7197F967
:102948000730002B0BDBFB7903F01F02074997F9CF
:1029580007305B09012000FA02F241F8232000BF8A
:102968000C37BD465DF8047B704700BF00E100E00E
:1029780080B483B000AF03463960FB7197F9073024
:10298800002B0ADB3B68DAB20C4997F907301201D1
:10299800D2B20B4483F800230AE03B68DAB2084954
:1029A800FB7903F00F03043B1201D2B20B441A76F1
:1029B80000BF0C37BD465DF8047B704700E100E0BE
:1029C80000ED00E080B489B000AFF860B9607A60CB
:1029D800FB6803F00703FB61FB69C3F10703042BE2
:1029E80028BF0423BB61FB690433062B02D9FB69AA
:1029F800033B00E000237B614FF0FF32BB6902FA22
:102A080003F3DA43BB681A407B699A404FF0FF3101
:102A18007B6901FA03F3D9437B680B4013431846DB
:102A28002437BD465DF8047B7047000080B582B04E
:102A380000AF78607B68013BB3F1807F01D301234D
:102A48000FE00A4A7B68013B53600F214FF0FF30CB
:102A5800FFF78EFF054B00229A60044B07221A608D
:102A6800002318460837BD4680BD00BF10E000E0CF
:102A780080B582B000AF78607868FFF729FF00BFA3
:102A88000837BD4680BD80B586B000AF0346B96043
:102A98007A60FB73FFF740FF78617A68B9687869F4
:102AA800FFF790FF024697F90F3011461846FFF7D7
:102AB8005FFF00BF1837BD4680BD80B582B000AF4C
:102AC8000346FB7197F907301846FFF733FF00BF3D
:102AD8000837BD4680BD80B582B000AF78607868A1
:102AE800FFF7A4FF034618460837BD4680BD80B5EA
:102AF80082B000AF78607B68002B01D1012349E0E8
:102B08007B6893F83D30DBB2002B06D17B6800224E
:102B180083F83C207868FDF77DFD7B68022283F806
:102B28003D207B681A687B6804331946104600F01C
:102B3800B7F97B68012283F848207B68012283F873
:102B48003E207B68012283F83F207B68012283F8BE
:102B580040207B68012283F841207B68012283F8AA
:102B680042207B68012283F843207B68012283F896
:102B780044207B68012283F845207B68012283F882
:102B880046207B68012283F847207B68012283F86E
:102B98003D20002318460837BD4680BD80B584B067
:102BA80000AF78607B681B68DB68FB607B681B682C
:102BB8001B69BB60BB6803F00203002B20D0FB68D5
:102BC80003F00203002B1BD07B681B686FF0020226
:102BD8001A617B6801221A777B681B689B6903F07E
:102BE8000303002B03D0786800F03BF905E0786810
:102BF80000F02DF9786800F03EF97B6800221A771A
:102C0800BB6803F00403002B20D0FB6803F0040327
:102C1800002B1BD07B681B686FF004021A617B686D
:102C280002221A777B681B689B6903F44073002BA8
:102C380003D0786800F015F905E0786800F007F926
:102C4800786800F018F97B6800221A77BB6803F0EF
:102C58000803002B20D0FB6803F00803002B1BD0CF
:102C68007B681B686FF008021A617B6804221A7778
:102C78007B681B68DB6903F00303002B03D07868CB
:102C880000F0EFF805E0786800F0E1F8786800F007
:102C9800F2F87B6800221A77BB6803F01003002B58
:102CA80020D0FB6803F01003002B1BD07B681B6847
:102CB8006FF010021A617B6808221A777B681B681C
:102CC800DB6903F44073002B03D0786800F0C9F87F
:102CD80005E0786800F0BBF8786800F0CCF87B680D
:102CE80000221A77BB6803F00103002B0CD0FB68A5
:102CF80003F00103002B07D07B681B686FF001020B
:102D08001A61786800F099F8BB6803F08003002B1B
:102D180004D1BB6803F40053002B0CD0FB6803F00C
:102D28008003002B07D07B681B686FF402521A617E
:102D3800786800F009FABB6803F48073002B0CD0A4
:102D4800FB6803F08003002B07D07B681B686FF4D7
:102D580080721A61786800F001FABB6803F04003DA
:102D6800002B0CD0FB6803F04003002B07D07B68D6
:102D78001B686FF040021A61786800F086F8BB683B
:102D880003F02003002B0CD0FB6803F02003002B7A
:102D980007D07B681B686FF020021A61786800F022
:102DA800C9F9BB6803F48013002B0CD0FB6803F44B
:102DB8008013002B07D07B681B686FF480121A61A0
:102DC800786800F0D5F9BB6803F40013002B0CD029
:102DD800FB6803F40013002B07D07B681B686FF4B3
:102DE80000121A61786800F0CDF9BB6803F480031B
:102DF800002B0CD0FB6803F48003002B07D07B6802
:102E08001B686FF480021A61786800F0C5F9BB6826
:102E180003F40003002B0CD0FB6803F40003002B21
:102E280007D07B681B686FF400021A61786800F0AD
:102E3800BDF900BF1037BD4680BD80B483B000AF78
:102E4800786000BF0C37BD465DF8047B704780B4DE
:102E580083B000AF786000BF0C37BD465DF8047BD7
:102E6800704780B483B000AF786000BF0C37BD46B0
:102E78005DF8047B704780B483B000AF786000BF12
:102E88000C37BD465DF8047B704780B483B000AF53
:102E9800786000BF0C37BD465DF8047B70470000C2
:102EA80080B485B000AF786039607B681B68FB60D0
:102EB8007B684C4A934217D07B68B3F1804F13D09C
:102EC8007B68494A93420FD07B68484A93420BD0AB
:102ED8007B68474A934207D07B68464A934203D0AF
:102EE8007B68454A934208D1FB6823F07003FB6076
:102EF8003B685B68FA681343FB607B68394A934216
:102F080023D07B68B3F1804F1FD07B68364A934249
:102F18001BD07B68354A934217D07B68344A93426A
:102F280013D07B68334A93420FD07B68334A93426D
:102F38000BD07B68324A934207D07B68314A934270
:102F480003D07B682C4A934208D1FB6823F4407372
:102F5800FB603B68DB68FA681343FB60FB6823F09F
:102F680080023B685B691343FB607B68FA681A6000
:102F78003B689A687B68DA623B681A687B689A6281
:102F88007B68184A934213D07B681A4A93420FD041
:102F98007B681A4A93420BD07B68194A934207D040
:102FA8007B68184A934203D07B68134A934203D143
:102FB8003B681A697B681A637B6801225A617B68DF
:102FC8001B6903F00103012B05D17B681B6923F002
:102FD80001027B681A6100BF1437BD465DF8047BA7
:102FE800704700BF002C014000040040000800406A
:102FF800000C0040003401400050014000400140F6
:10300800004401400048014080B485B000AF7860BA
:1030180039607B6893F83C30012B01D1022374E0BE
:103028007B68012283F83C207B68022283F83D20DC
:103038007B681B685B68FB607B681B689B68BB6080
:103048007B681B68344A934209D07B681B68334A03
:10305800934204D07B681B68314A934208D1FB68CD
:1030680023F47003FB603B685B68FA681343FB60FA
:10307800FB6823F0007323F07003FB603B681B6858
:10308800FA681343FB607B681B68FA685A607B68C0
:103098001B68214A934222D07B681B68B3F1804F9A
:1030A8001DD07B681B681F4A934218D07B681B6839
:1030B8001D4A934213D07B681B681C4A93420ED06A
:1030C8007B681B68154A934209D07B681B68184ABD
:1030D800934204D07B681B68114A93420CD1BB68A9
:1030E80023F08003BB603B689B68BA681343BB60EE
:1030F8007B681B68BA689A607B68012283F83D2068
:103108007B68002283F83C20002318461437BD460C
:103118005DF8047B704700BF002C0140003401407B
:10312800005001400004004000080040000C00402E
:103138000040014080B483B000AF786000BF0C3716
:10314800BD465DF8047B704780B483B000AF7860FB
:1031580000BF0C37BD465DF8047B704780B483B070
:1031680000AF786000BF0C37BD465DF8047B704740
:1031780080B483B000AF786000BF0C37BD465DF8FF
:10318800047B704780B483B000AF786000BF0C3711
:10319800BD465DF8047B704780B483B000AF7860AB
:1031A80000BF0C37BD465DF8047B704780B483B020
:1031B80000AF786000BF0C37BD465DF8047B7047F0
:1031C80080B400AF064BD3F88830054A43F4700347
:1031D800C2F8883000BFBD465DF8047B704700BF69
:1031E80000ED00E080B586B000AF00220121104854
:1031F800FDF7F8FD00233B6000237B600023BB60E4
:103208000123FB6000233B6140F2FF737B613B4677
:1032180019460748FDF7E6FB0346002B01D0FDF7EA
:10322800DBF80348FDF738FC00BF1837BD4680BD02
:103238002800002080B58EB000AFF8607A603B604F
:103248000B467B817B897B610023BB610023FB618B
:103258003B683B6200237B620023BB620023FB6266
:1032680000233B6300237B630848FDF7A9FD034661
:10327800002B06D007F114037A6819460348FDF7B6
:1032880033FC00BF3837BD4680BD00BF2800002092
:1032980080B582B000AF786039607B68044A934299
:1032A80001D100F031F800BF0837BD4680BD00BF2E
:1032B8002800002080B58EB000AFF860B9607A6051
:1032C80007F110027B684021F868FDF771FC00BF28
:1032D8003837BD4680BD000080B584B000AF786047
:1032E8000B467B8013467B707B78FB7307F10F02DC
:1032F800798801230348FFF79DFF00BF1037BD46BB
:1033080080BD00BF2800002080B586B000AF3A1D00
:1033180007F10E0319461C48FFF7CCFF3B79A32B96
:103328002DD1BB791BB21B021AB27B791BB2134396
:103338001BB2FB82FB8A07EE903AF8EEE77A9FED24
:10334800137A67EE877A124BC3ED007AFB791A4637
:103358003B7A1B021A437B7A1B041A43BB7A1B066F
:1033680013433B613B6907EE903AF8EEE77A9FED2D
:10337800077A67EE877A064BC3ED017A00BF00BF74
:103388001837BD4680BD00BF280000200000B43CAF
:10339800DC0000200D488546FFF712FF0C480D4958
:1033A8000D4A002302E0D458C4500433C4188C4298
:1033B800F9D30A4A0A4C002301E013600432A242FE
:1033C800FBD3FCF757FFFCF79DFFFEE70000022048
:1033D800000000200C000020303400080C00002001
:1033E800E4000020FEE70000F8B500BFF8BC08BC08
:1033F8009E467047F8B500BFF8BC08BC9E467047AB
:103408000001020304050607080C101418203040B8
:10341800000000000000000001020304060708097C
:04342800F1020008A5
:04342C00CD020008C5
:0C34300010000000010000000024F40067
:040000050800339D1F
:00000001FF
